{
  "contractName": "Depository",
  "abi": [
    {
      "constant": true,
      "inputs": [],
      "name": "totalStakedFunds",
      "outputs": [
        {
          "name": "",
          "type": "uint256"
        }
      ],
      "payable": false,
      "stateMutability": "view",
      "type": "function"
    },
    {
      "constant": true,
      "inputs": [],
      "name": "devAccount",
      "outputs": [
        {
          "name": "",
          "type": "address"
        }
      ],
      "payable": false,
      "stateMutability": "view",
      "type": "function"
    },
    {
      "constant": true,
      "inputs": [],
      "name": "totalBalance",
      "outputs": [
        {
          "name": "",
          "type": "uint256"
        }
      ],
      "payable": false,
      "stateMutability": "view",
      "type": "function"
    },
    {
      "constant": true,
      "inputs": [],
      "name": "marginBank",
      "outputs": [
        {
          "name": "",
          "type": "uint256"
        }
      ],
      "payable": false,
      "stateMutability": "view",
      "type": "function"
    },
    {
      "constant": true,
      "inputs": [],
      "name": "allTimeTotalProfit",
      "outputs": [
        {
          "name": "",
          "type": "uint256"
        }
      ],
      "payable": false,
      "stateMutability": "view",
      "type": "function"
    },
    {
      "constant": true,
      "inputs": [],
      "name": "priceFeedSource",
      "outputs": [
        {
          "name": "",
          "type": "address"
        }
      ],
      "payable": false,
      "stateMutability": "view",
      "type": "function"
    },
    {
      "inputs": [
        {
          "name": "_settingsAddress",
          "type": "address"
        },
        {
          "name": "_tokenAddress",
          "type": "address"
        },
        {
          "name": "_percentMultiplyer",
          "type": "uint256"
        },
        {
          "name": "_priceFeedSource",
          "type": "address"
        }
      ],
      "payable": false,
      "stateMutability": "nonpayable",
      "type": "constructor"
    },
    {
      "anonymous": false,
      "inputs": [
        {
          "indexed": true,
          "name": "payee",
          "type": "address"
        },
        {
          "indexed": false,
          "name": "weiAmount",
          "type": "uint256"
        }
      ],
      "name": "Deposited",
      "type": "event"
    },
    {
      "anonymous": false,
      "inputs": [
        {
          "indexed": true,
          "name": "payee",
          "type": "address"
        },
        {
          "indexed": false,
          "name": "weiAmount",
          "type": "uint256"
        }
      ],
      "name": "Withdrawn",
      "type": "event"
    },
    {
      "anonymous": false,
      "inputs": [
        {
          "indexed": true,
          "name": "payee",
          "type": "address"
        },
        {
          "indexed": false,
          "name": "weiAmount",
          "type": "uint256"
        }
      ],
      "name": "Staked",
      "type": "event"
    },
    {
      "anonymous": false,
      "inputs": [
        {
          "indexed": true,
          "name": "payee",
          "type": "address"
        },
        {
          "indexed": false,
          "name": "weiAmount",
          "type": "uint256"
        }
      ],
      "name": "Unstaked",
      "type": "event"
    },
    {
      "constant": false,
      "inputs": [],
      "name": "deposit",
      "outputs": [],
      "payable": true,
      "stateMutability": "payable",
      "type": "function"
    },
    {
      "constant": false,
      "inputs": [
        {
          "name": "amount",
          "type": "uint256"
        }
      ],
      "name": "withdraw",
      "outputs": [],
      "payable": false,
      "stateMutability": "nonpayable",
      "type": "function"
    },
    {
      "constant": false,
      "inputs": [],
      "name": "withdrawAll",
      "outputs": [],
      "payable": false,
      "stateMutability": "nonpayable",
      "type": "function"
    },
    {
      "constant": false,
      "inputs": [],
      "name": "stakeFunds",
      "outputs": [],
      "payable": true,
      "stateMutability": "payable",
      "type": "function"
    },
    {
      "constant": false,
      "inputs": [
        {
          "name": "amount",
          "type": "uint256"
        }
      ],
      "name": "unstakeFunds",
      "outputs": [],
      "payable": false,
      "stateMutability": "nonpayable",
      "type": "function"
    },
    {
      "constant": false,
      "inputs": [],
      "name": "getDividends",
      "outputs": [],
      "payable": false,
      "stateMutability": "nonpayable",
      "type": "function"
    },
    {
      "constant": false,
      "inputs": [
        {
          "name": "account",
          "type": "address"
        },
        {
          "name": "balance",
          "type": "uint256"
        },
        {
          "name": "availableBalance",
          "type": "uint256"
        },
        {
          "name": "feeValue",
          "type": "uint256"
        }
      ],
      "name": "updateBalances",
      "outputs": [],
      "payable": false,
      "stateMutability": "nonpayable",
      "type": "function"
    },
    {
      "constant": false,
      "inputs": [
        {
          "name": "contractProfit",
          "type": "uint256"
        }
      ],
      "name": "setLiquidationProfit",
      "outputs": [],
      "payable": false,
      "stateMutability": "nonpayable",
      "type": "function"
    },
    {
      "constant": true,
      "inputs": [
        {
          "name": "account",
          "type": "address"
        },
        {
          "name": "feeValue",
          "type": "uint256"
        }
      ],
      "name": "calcDiscountFeePercent",
      "outputs": [
        {
          "name": "",
          "type": "uint256"
        }
      ],
      "payable": false,
      "stateMutability": "view",
      "type": "function"
    },
    {
      "constant": true,
      "inputs": [],
      "name": "calcAccountProfit",
      "outputs": [
        {
          "name": "",
          "type": "uint256"
        }
      ],
      "payable": false,
      "stateMutability": "view",
      "type": "function"
    },
    {
      "constant": true,
      "inputs": [
        {
          "name": "discountPercent",
          "type": "uint256"
        },
        {
          "name": "feeValue",
          "type": "uint256"
        }
      ],
      "name": "calcFeeValueWithDiscount",
      "outputs": [
        {
          "name": "",
          "type": "uint256"
        }
      ],
      "payable": false,
      "stateMutability": "view",
      "type": "function"
    },
    {
      "constant": true,
      "inputs": [
        {
          "name": "account",
          "type": "address"
        }
      ],
      "name": "getBalance",
      "outputs": [
        {
          "name": "",
          "type": "uint256"
        }
      ],
      "payable": false,
      "stateMutability": "view",
      "type": "function"
    },
    {
      "constant": true,
      "inputs": [
        {
          "name": "account",
          "type": "address"
        }
      ],
      "name": "getAvailableBalance",
      "outputs": [
        {
          "name": "",
          "type": "uint256"
        }
      ],
      "payable": false,
      "stateMutability": "view",
      "type": "function"
    },
    {
      "constant": true,
      "inputs": [
        {
          "name": "account",
          "type": "address"
        }
      ],
      "name": "getStakedFundsOf",
      "outputs": [
        {
          "name": "",
          "type": "uint256"
        }
      ],
      "payable": false,
      "stateMutability": "view",
      "type": "function"
    },
    {
      "constant": true,
      "inputs": [],
      "name": "getTotalStakedFunds",
      "outputs": [
        {
          "name": "",
          "type": "uint256"
        }
      ],
      "payable": false,
      "stateMutability": "view",
      "type": "function"
    },
    {
      "constant": true,
      "inputs": [],
      "name": "getUSDETHPrice",
      "outputs": [
        {
          "name": "",
          "type": "uint256"
        }
      ],
      "payable": false,
      "stateMutability": "pure",
      "type": "function"
    },
    {
      "constant": true,
      "inputs": [
        {
          "name": "account",
          "type": "address"
        }
      ],
      "name": "getWalletBalance",
      "outputs": [
        {
          "name": "",
          "type": "uint256"
        }
      ],
      "payable": false,
      "stateMutability": "view",
      "type": "function"
    }
  ],
  "bytecode": "0x608060405234801561001057600080fd5b506040516080806122478339810180604052608081101561003057600080fd5b8101908080519060200190929190805190602001909291908051906020019092919080519060200190929190505050600160008190555082600160006101000a81548173ffffffffffffffffffffffffffffffffffffffff021916908373ffffffffffffffffffffffffffffffffffffffff16021790555083600260006101000a81548173ffffffffffffffffffffffffffffffffffffffff021916908373ffffffffffffffffffffffffffffffffffffffff16021790555081600a81905550600260009054906101000a900473ffffffffffffffffffffffffffffffffffffffff1673ffffffffffffffffffffffffffffffffffffffff1663fbda66226040518163ffffffff167c010000000000000000000000000000000000000000000000000000000002815260040160206040518083038186803b15801561017457600080fd5b505afa158015610188573d6000803e3d6000fd5b505050506040513d602081101561019e57600080fd5b8101908080519060200190929190505050600b60006101000a81548173ffffffffffffffffffffffffffffffffffffffff021916908373ffffffffffffffffffffffffffffffffffffffff16021790555080600c60006101000a81548173ffffffffffffffffffffffffffffffffffffffff021916908373ffffffffffffffffffffffffffffffffffffffff16021790555050505050612004806102436000396000f3fe608060405260043610610133576000357c0100000000000000000000000000000000000000000000000000000000900463ffffffff16806318ec2d5c146101385780631eb40de114610163578063236df8021461019e5780632e1a7d4d146101c95780636312b7fd1461020457806365a35a7e1461025d578063691edfda146102675780636c24a76f146102be5780637260cc131461032357806381f35bc614610392578063853828b6146103cd578063a3ca17b2146103e4578063a8df67431461040f578063ad7a672f1461047e578063ad8f1eab146104a9578063ba5a73a8146104d4578063c5ace443146104ff578063c7c551b614610556578063d0e30db0146105bb578063e2abad47146105c5578063ed442e14146105f0578063ed8ec19414610607578063f8b2cb4f1461066c575b600080fd5b34801561014457600080fd5b5061014d6106d1565b6040518082815260200191505060405180910390f35b34801561016f57600080fd5b5061019c6004803603602081101561018657600080fd5b81019080803590602001909291905050506106d7565b005b3480156101aa57600080fd5b506101b3610a18565b6040518082815260200191505060405180910390f35b3480156101d557600080fd5b50610202600480360360208110156101ec57600080fd5b8101908080359060200190929190505050610b92565b005b34801561021057600080fd5b506102476004803603604081101561022757600080fd5b810190808035906020019092919080359060200190929190505050610d4f565b6040518082815260200191505060405180910390f35b610265610dba565b005b34801561027357600080fd5b5061027c610f3b565b604051808273ffffffffffffffffffffffffffffffffffffffff1673ffffffffffffffffffffffffffffffffffffffff16815260200191505060405180910390f35b3480156102ca57600080fd5b5061030d600480360360208110156102e157600080fd5b81019080803573ffffffffffffffffffffffffffffffffffffffff169060200190929190505050610f61565b6040518082815260200191505060405180910390f35b34801561032f57600080fd5b5061037c6004803603604081101561034657600080fd5b81019080803573ffffffffffffffffffffffffffffffffffffffff16906020019092919080359060200190929190505050610faa565b6040518082815260200191505060405180910390f35b34801561039e57600080fd5b506103cb600480360360208110156103b557600080fd5b81019080803590602001909291905050506112d7565b005b3480156103d957600080fd5b506103e2611542565b005b3480156103f057600080fd5b506103f961158c565b6040518082815260200191505060405180910390f35b34801561041b57600080fd5b5061047c6004803603608081101561043257600080fd5b81019080803573ffffffffffffffffffffffffffffffffffffffff1690602001909291908035906020019092919080359060200190929190803590602001909291905050506115f3565b005b34801561048a57600080fd5b50610493611bf1565b6040518082815260200191505060405180910390f35b3480156104b557600080fd5b506104be611bf7565b6040518082815260200191505060405180910390f35b3480156104e057600080fd5b506104e9611bfd565b6040518082815260200191505060405180910390f35b34801561050b57600080fd5b50610514611c03565b604051808273ffffffffffffffffffffffffffffffffffffffff1673ffffffffffffffffffffffffffffffffffffffff16815260200191505060405180910390f35b34801561056257600080fd5b506105a56004803603602081101561057957600080fd5b81019080803573ffffffffffffffffffffffffffffffffffffffff169060200190929190505050611c29565b6040518082815260200191505060405180910390f35b6105c3611c75565b005b3480156105d157600080fd5b506105da611e10565b6040518082815260200191505060405180910390f35b3480156105fc57600080fd5b50610605611e1a565b005b34801561061357600080fd5b506106566004803603602081101561062a57600080fd5b81019080803573ffffffffffffffffffffffffffffffffffffffff169060200190929190505050611ec3565b6040518082815260200191505060405180910390f35b34801561067857600080fd5b506106bb6004803603602081101561068f57600080fd5b81019080803573ffffffffffffffffffffffffffffffffffffffff169060200190929190505050611ee4565b6040518082815260200191505060405180910390f35b60075481565b60016000808282540192505081905550600080549050600082141515156106fd57600080fd5b600073ffffffffffffffffffffffffffffffffffffffff163373ffffffffffffffffffffffffffffffffffffffff161415151561073957600080fd5b610741611e1a565b61079682600360003373ffffffffffffffffffffffffffffffffffffffff1673ffffffffffffffffffffffffffffffffffffffff16815260200190815260200160002060000154611f2d90919063ffffffff16565b600360003373ffffffffffffffffffffffffffffffffffffffff1673ffffffffffffffffffffffffffffffffffffffff16815260200190815260200160002060000181905550600b60009054906101000a900473ffffffffffffffffffffffffffffffffffffffff1673ffffffffffffffffffffffffffffffffffffffff163373ffffffffffffffffffffffffffffffffffffffff1614151561095457600061085c606461084e600386611f4f90919063ffffffff16565b611f8d90919063ffffffff16565b90506108718184611f2d90919063ffffffff16565b92506108ea8160036000600b60009054906101000a900473ffffffffffffffffffffffffffffffffffffffff1673ffffffffffffffffffffffffffffffffffffffff1673ffffffffffffffffffffffffffffffffffffffff16815260200190815260200160002060000154611fb790919063ffffffff16565b60036000600b60009054906101000a900473ffffffffffffffffffffffffffffffffffffffff1673ffffffffffffffffffffffffffffffffffffffff1673ffffffffffffffffffffffffffffffffffffffff16815260200190815260200160002060000181905550505b61096982600754611f2d90919063ffffffff16565b6007819055503373ffffffffffffffffffffffffffffffffffffffff166108fc839081150290604051600060405180830381858888f193505050501580156109b5573d6000803e3d6000fd5b503373ffffffffffffffffffffffffffffffffffffffff167f0f5bb82176feb1b5e747e28471aa92156a04d9f3ab9f45f28e2d704232b93f75836040518082815260200191505060405180910390a260005481141515610a1457600080fd5b5050565b600080600360003373ffffffffffffffffffffffffffffffffffffffff1673ffffffffffffffffffffffffffffffffffffffff168152602001908152602001600020600001541415610a6d5760009050610b8f565b6000610aed600754610adf610a8e6064600a54611f4f90919063ffffffff16565b600360003373ffffffffffffffffffffffffffffffffffffffff1673ffffffffffffffffffffffffffffffffffffffff16815260200190815260200160002060000154611f4f90919063ffffffff16565b611f8d90919063ffffffff16565b90506000610b48600360003373ffffffffffffffffffffffffffffffffffffffff1673ffffffffffffffffffffffffffffffffffffffff16815260200190815260200160002060010154600854611f2d90919063ffffffff16565b90506000610b86610b656064600a54611f4f90919063ffffffff16565b610b788585611f4f90919063ffffffff16565b611f8d90919063ffffffff16565b90508093505050505b90565b6001600080828254019250508190555060008054905081600560003373ffffffffffffffffffffffffffffffffffffffff1673ffffffffffffffffffffffffffffffffffffffff1681526020019081526020016000205410151515610bf657600080fd5b610c4882600460003373ffffffffffffffffffffffffffffffffffffffff1673ffffffffffffffffffffffffffffffffffffffff16815260200190815260200160002054611f2d90919063ffffffff16565b600460003373ffffffffffffffffffffffffffffffffffffffff1673ffffffffffffffffffffffffffffffffffffffff16815260200190815260200160002081905550610ca082600654611f2d90919063ffffffff16565b6006819055503373ffffffffffffffffffffffffffffffffffffffff166108fc839081150290604051600060405180830381858888f19350505050158015610cec573d6000803e3d6000fd5b503373ffffffffffffffffffffffffffffffffffffffff167f7084f5476618d8e60b11ef0d7d3f06914655adb8793e28ff7f018d4c76d505d5836040518082815260200191505060405180910390a260005481141515610d4b57600080fd5b5050565b6000610db2610d6a6064600a54611f4f90919063ffffffff16565b610da4610d9586610d876064600a54611f4f90919063ffffffff16565b611f2d90919063ffffffff16565b85611f4f90919063ffffffff16565b611f8d90919063ffffffff16565b905092915050565b60016000808282540192505081905550600080549050600073ffffffffffffffffffffffffffffffffffffffff163373ffffffffffffffffffffffffffffffffffffffff1614151515610e0c57600080fd5b60003414151515610e1c57600080fd5b610e24611e1a565b610e3934600754611fb790919063ffffffff16565b600781905550610e9434600360003373ffffffffffffffffffffffffffffffffffffffff1673ffffffffffffffffffffffffffffffffffffffff16815260200190815260200160002060000154611fb790919063ffffffff16565b600360003373ffffffffffffffffffffffffffffffffffffffff1673ffffffffffffffffffffffffffffffffffffffff168152602001908152602001600020600001819055503373ffffffffffffffffffffffffffffffffffffffff167f9e71bc8eea02a63969f509818f2dafb9254532904319f9dbda79b67bd34a5f3d346040518082815260200191505060405180910390a260005481141515610f3857600080fd5b50565b600b60009054906101000a900473ffffffffffffffffffffffffffffffffffffffff1681565b6000600560008373ffffffffffffffffffffffffffffffffffffffff1673ffffffffffffffffffffffffffffffffffffffff168152602001908152602001600020549050919050565b6000806000600160009054906101000a900473ffffffffffffffffffffffffffffffffffffffff1673ffffffffffffffffffffffffffffffffffffffff166370a08231866040518263ffffffff167c0100000000000000000000000000000000000000000000000000000000028152600401808273ffffffffffffffffffffffffffffffffffffffff1673ffffffffffffffffffffffffffffffffffffffff16815260200191505060206040518083038186803b15801561106a57600080fd5b505afa15801561107e573d6000803e3d6000fd5b505050506040513d602081101561109457600080fd5b810190808051906020019092919050505090506000600160009054906101000a900473ffffffffffffffffffffffffffffffffffffffff1673ffffffffffffffffffffffffffffffffffffffff166318160ddd6040518163ffffffff167c010000000000000000000000000000000000000000000000000000000002815260040160206040518083038186803b15801561112d57600080fd5b505afa158015611141573d6000803e3d6000fd5b505050506040513d602081101561115757600080fd5b8101908080519060200190929190505050905060008111156112805761127d8161126f600260009054906101000a900473ffffffffffffffffffffffffffffffffffffffff1673ffffffffffffffffffffffffffffffffffffffff1663c792ef486040518163ffffffff167c010000000000000000000000000000000000000000000000000000000002815260040160206040518083038186803b1580156111fe57600080fd5b505afa158015611212573d6000803e3d6000fd5b505050506040513d602081101561122857600080fd5b81019080805190602001909291905050506112616112526064600a54611f4f90919063ffffffff16565b87611f4f90919063ffffffff16565b611f4f90919063ffffffff16565b611f8d90919063ffffffff16565b92505b60008514806112a557506112a1600a54600a54611f4f90919063ffffffff16565b8310155b156112ca576112c06064600a54611f4f90919063ffffffff16565b93505050506112d1565b8293505050505b92915050565b600260009054906101000a900473ffffffffffffffffffffffffffffffffffffffff1673ffffffffffffffffffffffffffffffffffffffff1663d7a1ac7a336040518263ffffffff167c0100000000000000000000000000000000000000000000000000000000028152600401808273ffffffffffffffffffffffffffffffffffffffff1673ffffffffffffffffffffffffffffffffffffffff16815260200191505060206040518083038186803b15801561139257600080fd5b505afa1580156113a6573d6000803e3d6000fd5b505050506040513d60208110156113bc57600080fd5b810190808051906020019092919050505080156114035750806114006009546113f2600654600754611fb790919063ffffffff16565b611fb790919063ffffffff16565b10155b151561140e57600080fd5b60006114f460646114e6600260009054906101000a900473ffffffffffffffffffffffffffffffffffffffff1673ffffffffffffffffffffffffffffffffffffffff16637e7a5f406040518163ffffffff167c010000000000000000000000000000000000000000000000000000000002815260040160206040518083038186803b15801561149c57600080fd5b505afa1580156114b0573d6000803e3d6000fd5b505050506040513d60208110156114c657600080fd5b810190808051906020019092919050505085611f4f90919063ffffffff16565b611f8d90919063ffffffff16565b905061150b81600854611fb790919063ffffffff16565b6008819055506115386115278284611f2d90919063ffffffff16565b600954611fb790919063ffffffff16565b6009819055505050565b61158a600460003373ffffffffffffffffffffffffffffffffffffffff1673ffffffffffffffffffffffffffffffffffffffff16815260200190815260200160002054610b92565b565b600080680796e3ea3f8ab00000905060006115b4633b9aca0083611f8d90919063ffffffff16565b905060008114156115ca576001925050506115f0565b600066038d7ea4c680009050808211156115e9578093505050506115f0565b8193505050505b90565b600260009054906101000a900473ffffffffffffffffffffffffffffffffffffffff1673ffffffffffffffffffffffffffffffffffffffff1663d7a1ac7a336040518263ffffffff167c0100000000000000000000000000000000000000000000000000000000028152600401808273ffffffffffffffffffffffffffffffffffffffff1673ffffffffffffffffffffffffffffffffffffffff16815260200191505060206040518083038186803b1580156116ae57600080fd5b505afa1580156116c2573d6000803e3d6000fd5b505050506040513d60208110156116d857600080fd5b810190808051906020019092919050505080156117e75750600260009054906101000a900473ffffffffffffffffffffffffffffffffffffffff1673ffffffffffffffffffffffffffffffffffffffff1663bd10aa48336040518263ffffffff167c0100000000000000000000000000000000000000000000000000000000028152600401808273ffffffffffffffffffffffffffffffffffffffff1673ffffffffffffffffffffffffffffffffffffffff16815260200191505060206040518083038186803b1580156117ab57600080fd5b505afa1580156117bf573d6000803e3d6000fd5b505050506040513d60208110156117d557600080fd5b81019080805190602001909291905050505b80156118e55750600160009054906101000a900473ffffffffffffffffffffffffffffffffffffffff1673ffffffffffffffffffffffffffffffffffffffff1663aa271e1a306040518263ffffffff167c0100000000000000000000000000000000000000000000000000000000028152600401808273ffffffffffffffffffffffffffffffffffffffff1673ffffffffffffffffffffffffffffffffffffffff16815260200191505060206040518083038186803b1580156118a957600080fd5b505afa1580156118bd573d6000803e3d6000fd5b505050506040513d60208110156118d357600080fd5b81019080805190602001909291905050505b15156118f057600080fd5b82600460008673ffffffffffffffffffffffffffffffffffffffff1673ffffffffffffffffffffffffffffffffffffffff168152602001908152602001600020541115611a9a57600061198b84600460008873ffffffffffffffffffffffffffffffffffffffff1673ffffffffffffffffffffffffffffffffffffffff16815260200190815260200160002054611f2d90919063ffffffff16565b9050600160009054906101000a900473ffffffffffffffffffffffffffffffffffffffff1673ffffffffffffffffffffffffffffffffffffffff166340c10f1986836040518363ffffffff167c0100000000000000000000000000000000000000000000000000000000028152600401808373ffffffffffffffffffffffffffffffffffffffff1673ffffffffffffffffffffffffffffffffffffffff16815260200182815260200192505050602060405180830381600087803b158015611a5257600080fd5b505af1158015611a66573d6000803e3d6000fd5b505050506040513d6020811015611a7c57600080fd5b81019080805190602001909291905050501515611a9857600080fd5b505b6000611aa68583610faa565b90506000611ab48284610d4f565b9050611b2e81611b20600460008a73ffffffffffffffffffffffffffffffffffffffff1673ffffffffffffffffffffffffffffffffffffffff16815260200190815260200160002054611b1289600654611fb790919063ffffffff16565b611f2d90919063ffffffff16565b611f2d90919063ffffffff16565b600681905550611b478186611f2d90919063ffffffff16565b600460008873ffffffffffffffffffffffffffffffffffffffff1673ffffffffffffffffffffffffffffffffffffffff1681526020019081526020016000208190555083600560008873ffffffffffffffffffffffffffffffffffffffff1673ffffffffffffffffffffffffffffffffffffffff16815260200190815260200160002081905550611be381600854611fb790919063ffffffff16565b600881905550505050505050565b60065481565b60095481565b60085481565b600c60009054906101000a900473ffffffffffffffffffffffffffffffffffffffff1681565b6000600360008373ffffffffffffffffffffffffffffffffffffffff1673ffffffffffffffffffffffffffffffffffffffff168152602001908152602001600020600001549050919050565b6000349050611ccc81600460003373ffffffffffffffffffffffffffffffffffffffff1673ffffffffffffffffffffffffffffffffffffffff16815260200190815260200160002054611fb790919063ffffffff16565b600460003373ffffffffffffffffffffffffffffffffffffffff1673ffffffffffffffffffffffffffffffffffffffff16815260200190815260200160002081905550611d6181600560003373ffffffffffffffffffffffffffffffffffffffff1673ffffffffffffffffffffffffffffffffffffffff16815260200190815260200160002054611fb790919063ffffffff16565b600560003373ffffffffffffffffffffffffffffffffffffffff1673ffffffffffffffffffffffffffffffffffffffff16815260200190815260200160002081905550611db981600654611fb790919063ffffffff16565b6006819055503373ffffffffffffffffffffffffffffffffffffffff167f2da466a7b24304f47e87fa2e1e5a81b9831ce54fec19055ce277ca2f39ba42c4826040518082815260200191505060405180910390a250565b6000600754905090565b6000611e24610a18565b90506000811115611ec057600854600360003373ffffffffffffffffffffffffffffffffffffffff1673ffffffffffffffffffffffffffffffffffffffff168152602001908152602001600020600101819055503373ffffffffffffffffffffffffffffffffffffffff166108fc829081150290604051600060405180830381858888f19350505050158015611ebe573d6000803e3d6000fd5b505b50565b60008173ffffffffffffffffffffffffffffffffffffffff16319050919050565b6000600460008373ffffffffffffffffffffffffffffffffffffffff1673ffffffffffffffffffffffffffffffffffffffff168152602001908152602001600020549050919050565b6000828211151515611f3e57600080fd5b600082840390508091505092915050565b600080831415611f625760009050611f87565b60008284029050828482811515611f7557fe5b04141515611f8257600080fd5b809150505b92915050565b60008082111515611f9d57600080fd5b60008284811515611faa57fe5b0490508091505092915050565b6000808284019050838110151515611fce57600080fd5b809150509291505056fea165627a7a72305820c91404745c18d90cd73d248048e05a50ef0993e7831e2c860558db9fbcd5cb090029",
  "source": "pragma solidity ^0.5.0;\r\nimport \"openzeppelin-solidity/contracts/utils/ReentrancyGuard.sol\";\r\nimport \"openzeppelin-solidity/contracts/math/SafeMath.sol\";\r\nimport \"./Oracle/PriceFeed.sol\";\r\nimport \"./Oracle/Medianizer.sol\";\r\nimport \"./Token.sol\";\r\nimport \"./Settings.sol\";\r\n\r\ncontract Depository is ReentrancyGuard{\r\n\r\n    using SafeMath for uint256;\r\n\r\n    ERC20Mintable token;\r\n    Settings settings;\r\n\r\n    struct Staker {\r\n        uint256 amount;\r\n        uint256 prevAllTimeProfit;\r\n    }\r\n\r\n    mapping(address => Staker) private stakedFunds;\r\n    mapping(address => uint256) private balances;\r\n    mapping(address => uint256) private availableBalances;\r\n    \r\n    uint256 public totalBalance;\r\n    uint256 public totalStakedFunds;\r\n    uint256 public allTimeTotalProfit;\r\n    uint256 public marginBank;\r\n    uint256 private percentMultiplyer;\r\n    address public devAccount;\r\n    address public priceFeedSource;\r\n\r\n    event Deposited(address indexed payee, uint256 weiAmount);\r\n    event Withdrawn(address indexed payee, uint256 weiAmount);\r\n    event Staked(address indexed payee, uint256 weiAmount);\r\n    event Unstaked(address indexed payee, uint256 weiAmount);\r\n\r\n\r\n    constructor (\r\n        address _settingsAddress,\r\n        address _tokenAddress,\r\n        uint256 _percentMultiplyer,\r\n        address _priceFeedSource\r\n    ) public {\r\n        token = Token(_tokenAddress);\r\n        settings = Settings(_settingsAddress);\r\n        percentMultiplyer = _percentMultiplyer;\r\n        devAccount = settings.getDevAccount();\r\n        priceFeedSource = _priceFeedSource;\r\n    }\r\n\r\n    function deposit() public payable {\r\n        uint256 amount = msg.value;\r\n        balances[msg.sender] = balances[msg.sender].add(amount);\r\n        availableBalances[msg.sender] = availableBalances[msg.sender].add(amount);\r\n        totalBalance = totalBalance.add(amount);\r\n        emit Deposited(msg.sender, amount);\r\n    }\r\n\r\n    function withdraw(uint256 amount) public nonReentrant{\r\n        require(availableBalances[msg.sender] >= amount);\r\n        balances[msg.sender] = balances[msg.sender].sub(amount);\r\n        totalBalance = totalBalance.sub(amount);\r\n        msg.sender.transfer(amount);\r\n\r\n        emit Withdrawn(msg.sender, amount);\r\n    }\r\n\r\n    function withdrawAll() public {\r\n        withdraw(balances[msg.sender]);\r\n    }\r\n\r\n    function stakeFunds() public nonReentrant payable {\r\n        require(msg.sender != address(0));\r\n        require(msg.value != 0);\r\n        getDividends();\r\n        totalStakedFunds = totalStakedFunds.add(msg.value);\r\n        stakedFunds[msg.sender].amount = stakedFunds[msg.sender].amount.add(msg.value);\r\n        emit Staked(msg.sender, msg.value);\r\n    }\r\n\r\n    function unstakeFunds(uint256 amount) public nonReentrant {\r\n        require(amount != 0);\r\n        require(msg.sender != address(0));\r\n        getDividends();\r\n        stakedFunds[msg.sender].amount = stakedFunds[msg.sender].amount.sub(amount);\r\n        \r\n        if(msg.sender!=devAccount){\r\n            uint256 devStakeAmount = amount.mul(3).div(100);\r\n            amount = amount.sub(devStakeAmount);\r\n            stakedFunds[devAccount].amount=stakedFunds[devAccount].amount.add(devStakeAmount);\r\n        }\r\n\r\n        totalStakedFunds = totalStakedFunds.sub(amount);\r\n        msg.sender.transfer(amount);\r\n        emit Unstaked(msg.sender, amount);\r\n    }\r\n\r\n    function getDividends() public  {\r\n        uint256 accountProfit =  calcAccountProfit();\r\n        if (accountProfit>0) {\r\n            stakedFunds[msg.sender].prevAllTimeProfit = allTimeTotalProfit;\r\n            msg.sender.transfer(accountProfit);\r\n        }\r\n    }\r\n\r\n    function updateBalances (address account, uint256 balance, uint256 availableBalance, uint256 feeValue) public  {\r\n        require(\r\n            settings.isContractTrusted(msg.sender) && \r\n            settings.isContractNotExpired(msg.sender) && \r\n          //  totalBalance >= balance &&\r\n            token.isMinter(address(this))\r\n        );\r\n\r\n        // if loss create new tokens\r\n        if(balances[account] > balance) {\r\n            uint256 lossAmount = balances[account].sub(balance);\r\n            require(token.mint(account, lossAmount));\r\n        }\r\n\r\n        uint256 discountPercent = calcDiscountFeePercent(account, feeValue);\r\n        uint256 feeValueWithDiscount = calcFeeValueWithDiscount(discountPercent, feeValue);\r\n\r\n        totalBalance = totalBalance.add(balance).sub(balances[account]).sub(feeValueWithDiscount); \r\n        balances[account] = balance.sub(feeValueWithDiscount);\r\n        availableBalances[account] = availableBalance;\r\n        allTimeTotalProfit = allTimeTotalProfit.add(feeValueWithDiscount);\r\n    }\r\n\r\n    function setLiquidationProfit(uint256 contractProfit) public {\r\n        require(settings.isContractTrusted(msg.sender) && totalStakedFunds.add(totalBalance).add(marginBank)>=contractProfit);\r\n        uint256 liquidationProfitValue = contractProfit.mul(settings.liquidationProfit()).div(100);\r\n        allTimeTotalProfit = allTimeTotalProfit.add(liquidationProfitValue);\r\n        marginBank = marginBank.add(contractProfit.sub(liquidationProfitValue));\r\n    }\r\n\r\n    /// View methods\r\n\r\n    function calcDiscountFeePercent(address account, uint256 feeValue) public view returns (uint256){\r\n        uint256 discountPercent;\r\n        uint256 accountTokenBalance = token.balanceOf(account);\r\n        uint256 tokenTotalSupply = token.totalSupply();\r\n\r\n        if(tokenTotalSupply>0) discountPercent = accountTokenBalance.mul(percentMultiplyer.mul(100)).mul(settings.feeDiscountIndex()).div(tokenTotalSupply);\r\n        if(feeValue==0 || discountPercent >= percentMultiplyer.mul(percentMultiplyer)) {\r\n            return percentMultiplyer.mul(100);\r\n        }\r\n        return discountPercent;\r\n    }\r\n\r\n    function calcAccountProfit() public view returns (uint256){\r\n        if(stakedFunds[msg.sender].amount == 0) return 0;\r\n        uint256 stakePercent = stakedFunds[msg.sender].amount.mul(percentMultiplyer.mul(100)).div(totalStakedFunds);\r\n        uint256 remainingTotalProfit = allTimeTotalProfit.sub(stakedFunds[msg.sender].prevAllTimeProfit);\r\n        uint256 profit = remainingTotalProfit.mul(stakePercent).div(percentMultiplyer.mul(100));\r\n        return profit;\r\n    }\r\n\r\n    function calcFeeValueWithDiscount(uint256 discountPercent, uint256 feeValue) public view returns (uint256){\r\n        return feeValue.mul(percentMultiplyer.mul(100).sub(discountPercent)).div(percentMultiplyer.mul(100));\r\n    }\r\n\r\n    function getBalance (address account) public view returns(uint256) {\r\n        return balances[account];\r\n    }\r\n    \r\n    function getAvailableBalance (address account) public view returns(uint256) {\r\n        return availableBalances[account];\r\n    }\r\n\r\n    function getStakedFundsOf(address account) public view returns(uint256) {\r\n        return stakedFunds[account].amount;\r\n    }\r\n\r\n    function getTotalStakedFunds() public view returns(uint256) {\r\n        return totalStakedFunds;\r\n    }\r\n\r\n\r\n    /// @dev returns the USDETH price, ie gets the USD price from Maker feed with 9 digits\r\n    function getUSDETHPrice() public pure returns (uint256) {\r\n\r\n        //(bytes32 price, ) = Medianizer(priceFeedSource).peek();\r\n        uint256 price = 140000000000000000000;\r\n        \r\n        // ensuring that there is no underflow or overflow possible,\r\n        // even if the price is compromised\r\n        uint priceUint = uint256(price).div(10**9);\r\n        if (priceUint == 0) {\r\n            return 1;\r\n        }\r\n        uint256 maxval = 1000000*10**9;\r\n        if (priceUint > maxval) {\r\n            return maxval;\r\n        }\r\n        return priceUint;\r\n        \r\n\r\n    }\r\n\r\n\r\n\r\n    //////// testing \r\n    function getWalletBalance (address account) public view returns(uint256) {\r\n        return address(account).balance;\r\n    }\r\n\r\n\r\n\r\n}\r\n",
  "sourcePath": "/home/arct/projects/etherHedgeProject/contracts/Depository.sol",
  "compiler": {
    "name": "solc",
    "version": "0.5.0+commit.1d4f565a.Emscripten.clang"
  },
  "schemaVersion": "3.0.6",
  "updatedAt": "2019-05-26T00:13:56.675Z",
  "devdoc": {
    "methods": {
      "getUSDETHPrice()": {
        "details": "returns the USDETH price, ie gets the USD price from Maker feed with 9 digits"
      }
    }
  },
  "userdoc": {
    "methods": {
      "calcDiscountFeePercent(address,uint256)": {
        "notice": "View methods"
      },
      "getWalletBalance(address)": {
        "notice": "///// testing "
      }
    }
  }
}