{
  "contractName": "Medianizer",
  "abi": [
    {
      "constant": false,
      "inputs": [
        {
          "name": "owner_",
          "type": "address"
        }
      ],
      "name": "setOwner",
      "outputs": [],
      "payable": false,
      "stateMutability": "nonpayable",
      "type": "function"
    },
    {
      "constant": true,
      "inputs": [
        {
          "name": "",
          "type": "address"
        }
      ],
      "name": "indexes",
      "outputs": [
        {
          "name": "",
          "type": "bytes12"
        }
      ],
      "payable": false,
      "stateMutability": "view",
      "type": "function"
    },
    {
      "constant": true,
      "inputs": [],
      "name": "next",
      "outputs": [
        {
          "name": "",
          "type": "bytes12"
        }
      ],
      "payable": false,
      "stateMutability": "view",
      "type": "function"
    },
    {
      "constant": true,
      "inputs": [],
      "name": "read",
      "outputs": [
        {
          "name": "",
          "type": "bytes32"
        }
      ],
      "payable": false,
      "stateMutability": "view",
      "type": "function"
    },
    {
      "constant": true,
      "inputs": [],
      "name": "peek",
      "outputs": [
        {
          "name": "",
          "type": "bytes32"
        },
        {
          "name": "",
          "type": "bool"
        }
      ],
      "payable": false,
      "stateMutability": "view",
      "type": "function"
    },
    {
      "constant": true,
      "inputs": [
        {
          "name": "",
          "type": "bytes12"
        }
      ],
      "name": "values",
      "outputs": [
        {
          "name": "",
          "type": "address"
        }
      ],
      "payable": false,
      "stateMutability": "view",
      "type": "function"
    },
    {
      "constant": false,
      "inputs": [
        {
          "name": "authority_",
          "type": "address"
        }
      ],
      "name": "setAuthority",
      "outputs": [],
      "payable": false,
      "stateMutability": "nonpayable",
      "type": "function"
    },
    {
      "constant": true,
      "inputs": [],
      "name": "owner",
      "outputs": [
        {
          "name": "",
          "type": "address"
        }
      ],
      "payable": false,
      "stateMutability": "view",
      "type": "function"
    },
    {
      "constant": false,
      "inputs": [],
      "name": "void",
      "outputs": [],
      "payable": true,
      "stateMutability": "payable",
      "type": "function"
    },
    {
      "constant": true,
      "inputs": [],
      "name": "minimun",
      "outputs": [
        {
          "name": "",
          "type": "uint96"
        }
      ],
      "payable": false,
      "stateMutability": "view",
      "type": "function"
    },
    {
      "constant": true,
      "inputs": [],
      "name": "authority",
      "outputs": [
        {
          "name": "",
          "type": "address"
        }
      ],
      "payable": false,
      "stateMutability": "view",
      "type": "function"
    },
    {
      "anonymous": false,
      "inputs": [
        {
          "indexed": true,
          "name": "sig",
          "type": "bytes4"
        },
        {
          "indexed": true,
          "name": "guy",
          "type": "address"
        },
        {
          "indexed": true,
          "name": "foo",
          "type": "bytes32"
        },
        {
          "indexed": false,
          "name": "bar",
          "type": "bytes32"
        },
        {
          "indexed": false,
          "name": "wad",
          "type": "uint256"
        },
        {
          "indexed": false,
          "name": "fax",
          "type": "bytes"
        }
      ],
      "name": "LogNote",
      "type": "event"
    },
    {
      "anonymous": false,
      "inputs": [
        {
          "indexed": true,
          "name": "authority",
          "type": "address"
        }
      ],
      "name": "LogSetAuthority",
      "type": "event"
    },
    {
      "anonymous": false,
      "inputs": [
        {
          "indexed": true,
          "name": "owner",
          "type": "address"
        }
      ],
      "name": "LogSetOwner",
      "type": "event"
    },
    {
      "constant": false,
      "inputs": [
        {
          "name": "wat",
          "type": "address"
        }
      ],
      "name": "set",
      "outputs": [],
      "payable": false,
      "stateMutability": "nonpayable",
      "type": "function"
    },
    {
      "constant": false,
      "inputs": [
        {
          "name": "pos",
          "type": "bytes12"
        },
        {
          "name": "wat",
          "type": "address"
        }
      ],
      "name": "set",
      "outputs": [],
      "payable": true,
      "stateMutability": "payable",
      "type": "function"
    },
    {
      "constant": false,
      "inputs": [
        {
          "name": "min_",
          "type": "uint96"
        }
      ],
      "name": "setMin",
      "outputs": [],
      "payable": true,
      "stateMutability": "payable",
      "type": "function"
    },
    {
      "constant": false,
      "inputs": [
        {
          "name": "next_",
          "type": "bytes12"
        }
      ],
      "name": "setNext",
      "outputs": [],
      "payable": true,
      "stateMutability": "payable",
      "type": "function"
    },
    {
      "constant": false,
      "inputs": [
        {
          "name": "wat",
          "type": "address"
        }
      ],
      "name": "unset",
      "outputs": [],
      "payable": false,
      "stateMutability": "nonpayable",
      "type": "function"
    },
    {
      "constant": false,
      "inputs": [
        {
          "name": "pos",
          "type": "bytes12"
        }
      ],
      "name": "unset",
      "outputs": [],
      "payable": false,
      "stateMutability": "nonpayable",
      "type": "function"
    },
    {
      "constant": false,
      "inputs": [
        {
          "name": "",
          "type": "bytes32"
        }
      ],
      "name": "poke",
      "outputs": [],
      "payable": true,
      "stateMutability": "payable",
      "type": "function"
    },
    {
      "constant": false,
      "inputs": [],
      "name": "poke",
      "outputs": [],
      "payable": false,
      "stateMutability": "nonpayable",
      "type": "function"
    },
    {
      "constant": true,
      "inputs": [],
      "name": "compute",
      "outputs": [
        {
          "name": "",
          "type": "bytes32"
        },
        {
          "name": "",
          "type": "bool"
        }
      ],
      "payable": false,
      "stateMutability": "view",
      "type": "function"
    }
  ],
  "bytecode": "0x608060405260017401000000000000000000000000000000000000000002600560006101000a8154816bffffffffffffffffffffffff0219169083740100000000000000000000000000000000000000009004021790555060016005600c6101000a8154816bffffffffffffffffffffffff02191690836bffffffffffffffffffffffff16021790555033600160006101000a81548173ffffffffffffffffffffffffffffffffffffffff021916908373ffffffffffffffffffffffffffffffffffffffff1602179055503373ffffffffffffffffffffffffffffffffffffffff167fce241d7ca1f669fee44b6fc00b8eba2df3bb514eed0f6f668f8f89096e81ed9460405160405180910390a26123708061011c6000396000f3fe608060405260043610610112576000357c0100000000000000000000000000000000000000000000000000000000900463ffffffff16806313af4035146101175780631504460f1461016857806318178358146101965780631a43c338146101ad5780632801617e146101e35780632966d1b9146102345780632db78d93146102855780634c8fe5261461031857806357de26a41461037157806359e02dd71461039c578063651dd0de146103d25780636ba5ef0d146104645780637a9e5e4b146104a05780638da5cb5b146104f1578063ac4c25b214610548578063b069b60314610552578063beb38b4314610599578063bf7e214f146105fe578063e0a1fdad14610655578063f2c5925d146106a7575b600080fd5b34801561012357600080fd5b506101666004803603602081101561013a57600080fd5b81019080803573ffffffffffffffffffffffffffffffffffffffff1690602001909291905050506106ec565b005b6101946004803603602081101561017e57600080fd5b8101908080359060200190929190505050610837565b005b3480156101a257600080fd5b506101ab610948565b005b3480156101b957600080fd5b506101c2610957565b60405180838152602001821515151581526020019250505060405180910390f35b3480156101ef57600080fd5b506102326004803603602081101561020657600080fd5b81019080803573ffffffffffffffffffffffffffffffffffffffff169060200190929190505050610f4d565b005b34801561024057600080fd5b506102836004803603602081101561025757600080fd5b81019080803573ffffffffffffffffffffffffffffffffffffffff1690602001909291905050506110f0565b005b34801561029157600080fd5b506102d4600480360360208110156102a857600080fd5b81019080803573ffffffffffffffffffffffffffffffffffffffff16906020019092919050505061115e565b604051808273ffffffffffffffffffffffffffffffffffffffff191673ffffffffffffffffffffffffffffffffffffffff1916815260200191505060405180910390f35b34801561032457600080fd5b5061032d611192565b604051808273ffffffffffffffffffffffffffffffffffffffff191673ffffffffffffffffffffffffffffffffffffffff1916815260200191505060405180910390f35b34801561037d57600080fd5b506103866111b9565b6040518082815260200191505060405180910390f35b3480156103a857600080fd5b506103b16111db565b60405180838152602001821515151581526020019250505060405180910390f35b3480156103de57600080fd5b50610422600480360360208110156103f557600080fd5b81019080803573ffffffffffffffffffffffffffffffffffffffff191690602001909291905050506111f9565b604051808273ffffffffffffffffffffffffffffffffffffffff1673ffffffffffffffffffffffffffffffffffffffff16815260200191505060405180910390f35b61049e6004803603602081101561047a57600080fd5b8101908080356bffffffffffffffffffffffff16906020019092919050505061122c565b005b3480156104ac57600080fd5b506104ef600480360360208110156104c357600080fd5b81019080803573ffffffffffffffffffffffffffffffffffffffff169060200190929190505050611468565b005b3480156104fd57600080fd5b506105066115b1565b604051808273ffffffffffffffffffffffffffffffffffffffff1673ffffffffffffffffffffffffffffffffffffffff16815260200191505060405180910390f35b6105506115d7565b005b34801561055e57600080fd5b50610567611775565b60405180826bffffffffffffffffffffffff166bffffffffffffffffffffffff16815260200191505060405180910390f35b6105fc600480360360408110156105af57600080fd5b81019080803573ffffffffffffffffffffffffffffffffffffffff19169060200190929190803573ffffffffffffffffffffffffffffffffffffffff169060200190929190505050611793565b005b34801561060a57600080fd5b50610613611d42565b604051808273ffffffffffffffffffffffffffffffffffffffff1673ffffffffffffffffffffffffffffffffffffffff16815260200191505060405180910390f35b34801561066157600080fd5b506106a56004803603602081101561067857600080fd5b81019080803573ffffffffffffffffffffffffffffffffffffffff19169060200190929190505050611d67565b005b6106ea600480360360208110156106bd57600080fd5b81019080803573ffffffffffffffffffffffffffffffffffffffff19169060200190929190505050611d75565b005b61071a336000357fffffffff0000000000000000000000000000000000000000000000000000000016611fdb565b151561078e576040517f08c379a000000000000000000000000000000000000000000000000000000000815260040180806020018281038252601d8152602001807f4974206d75737420626520616e20617574686f72697a65642063616c6c00000081525060200191505060405180910390fd5b80600160006101000a81548173ffffffffffffffffffffffffffffffffffffffff021916908373ffffffffffffffffffffffffffffffffffffffff160217905550600160009054906101000a900473ffffffffffffffffffffffffffffffffffffffff1673ffffffffffffffffffffffffffffffffffffffff167fce241d7ca1f669fee44b6fc00b8eba2df3bb514eed0f6f668f8f89096e81ed9460405160405180910390a250565b60008060043591506024359050813373ffffffffffffffffffffffffffffffffffffffff166000357fffffffff00000000000000000000000000000000000000000000000000000000167bffffffffffffffffffffffffffffffffffffffffffffffffffffffff19167f644843f351d3fba4abcd60109eaff9f54bac8fb8ccf0bab941009c21df21cf31843460003660405180858152602001848152602001806020018281038252848482818152602001925080828437600081840152601f19601f8201169050808301925050509550505050505060405180910390a461091c610957565b60026000600160148491906101000a81548160ff02191690831515021790555083919050555050505050565b6109556000600102610837565b565b60008060606001600560009054906101000a90047401000000000000000000000000000000000000000002740100000000000000000000000000000000000000009004036bffffffffffffffffffffffff166040519080825280602002602001820160405280156109d75781602001602082028038833980820191505090505b50905060008090506000600190505b600560009054906101000a900474010000000000000000000000000000000000000000027401000000000000000000000000000000000000000090046bffffffffffffffffffffffff16816bffffffffffffffffffffffff161015610dab57600073ffffffffffffffffffffffffffffffffffffffff166003600083740100000000000000000000000000000000000000000273ffffffffffffffffffffffffffffffffffffffff191673ffffffffffffffffffffffffffffffffffffffff1916815260200190815260200160002060009054906101000a900473ffffffffffffffffffffffffffffffffffffffff1673ffffffffffffffffffffffffffffffffffffffff16141515610d9e576000806003600084740100000000000000000000000000000000000000000273ffffffffffffffffffffffffffffffffffffffff191673ffffffffffffffffffffffffffffffffffffffff1916815260200190815260200160002060009054906101000a900473ffffffffffffffffffffffffffffffffffffffff1673ffffffffffffffffffffffffffffffffffffffff166359e02dd76040518163ffffffff167c0100000000000000000000000000000000000000000000000000000000028152600401604080518083038186803b158015610bcf57600080fd5b505afa158015610be3573d6000803e3d6000fd5b505050506040513d6040811015610bf957600080fd5b810190808051906020019092919080519060200190929190505050915091508015610d9b576000846bffffffffffffffffffffffff161480610c63575084600185036bffffffffffffffffffffffff16815181101515610c5557fe5b906020019060200201518210155b15610c98578185856bffffffffffffffffffffffff16815181101515610c8557fe5b9060200190602002018181525050610d92565b60008090505b85816bffffffffffffffffffffffff16815181101515610cba57fe5b9060200190602002015183101515610cd9578080600101915050610c9e565b60008590505b816bffffffffffffffffffffffff16816bffffffffffffffffffffffff161115610d645786600182036bffffffffffffffffffffffff16815181101515610d2257fe5b9060200190602002015187826bffffffffffffffffffffffff16815181101515610d4857fe5b9060200190602002018181525050808060019003915050610cdf565b508286826bffffffffffffffffffffffff16815181101515610d8257fe5b9060200190602002018181525050505b83806001019450505b50505b80806001019150506109e6565b506005600c9054906101000a90046bffffffffffffffffffffffff166bffffffffffffffffffffffff16816bffffffffffffffffffffffff161015610dfa576002546000935093505050610f49565b6000806002836bffffffffffffffffffffffff16811515610e1757fe5b066bffffffffffffffffffffffff161415610ef85760008360016002856bffffffffffffffffffffffff16811515610e4b57fe5b04036bffffffffffffffffffffffff16815181101515610e6757fe5b906020019060200201516001900490506000846002856bffffffffffffffffffffffff16811515610e9457fe5b046bffffffffffffffffffffffff16815181101515610eaf57fe5b90602001906020020151600190049050610eda610ecc8383612250565b671bc16d674ec8000061228d565b6fffffffffffffffffffffffffffffffff1660010292505050610f3e565b826002600184036bffffffffffffffffffffffff16811515610f1657fe5b046bffffffffffffffffffffffff16815181101515610f3157fe5b9060200190602002015190505b806001945094505050505b9091565b610f7b336000357fffffffff0000000000000000000000000000000000000000000000000000000016611fdb565b1515610fef576040517f08c379a000000000000000000000000000000000000000000000000000000000815260040180806020018281038252601d8152602001807f4974206d75737420626520616e20617574686f72697a65642063616c6c00000081525060200191505060405180910390fd5b60006001600560009054906101000a900474010000000000000000000000000000000000000000027401000000000000000000000000000000000000000090040174010000000000000000000000000000000000000000029050600074010000000000000000000000000000000000000000028173ffffffffffffffffffffffffffffffffffffffff19161415151561108457fe5b6110b1600560009054906101000a9004740100000000000000000000000000000000000000000283611793565b80600560006101000a8154816bffffffffffffffffffffffff021916908374010000000000000000000000000000000000000000900402179055505050565b61115b600460008373ffffffffffffffffffffffffffffffffffffffff1673ffffffffffffffffffffffffffffffffffffffff16815260200190815260200160002060009054906101000a900474010000000000000000000000000000000000000000026000611793565b50565b60046020528060005260406000206000915054906101000a9004740100000000000000000000000000000000000000000281565b600560009054906101000a9004740100000000000000000000000000000000000000000281565b60008060006111c66111db565b915091508015156111d357fe5b819250505090565b600080600254600160149054906101000a900460ff16915091509091565b60036020528060005260406000206000915054906101000a900473ffffffffffffffffffffffffffffffffffffffff1681565b60008060043591506024359050813373ffffffffffffffffffffffffffffffffffffffff166000357fffffffff00000000000000000000000000000000000000000000000000000000167bffffffffffffffffffffffffffffffffffffffffffffffffffffffff19167f644843f351d3fba4abcd60109eaff9f54bac8fb8ccf0bab941009c21df21cf31843460003660405180858152602001848152602001806020018281038252848482818152602001925080828437600081840152601f19601f8201169050808301925050509550505050505060405180910390a4611337336000357fffffffff0000000000000000000000000000000000000000000000000000000016611fdb565b15156113ab576040517f08c379a000000000000000000000000000000000000000000000000000000000815260040180806020018281038252601d8152602001807f4974206d75737420626520616e20617574686f72697a65642063616c6c00000081525060200191505060405180910390fd5b6000836bffffffffffffffffffffffff1614151515611432576040517f08c379a00000000000000000000000000000000000000000000000000000000081526004018080602001828103825260118152602001807f6d696e2063616e6e6f742062652030783000000000000000000000000000000081525060200191505060405180910390fd5b826005600c6101000a8154816bffffffffffffffffffffffff02191690836bffffffffffffffffffffffff160217905550505050565b611496336000357fffffffff0000000000000000000000000000000000000000000000000000000016611fdb565b151561150a576040517f08c379a000000000000000000000000000000000000000000000000000000000815260040180806020018281038252601d8152602001807f4974206d75737420626520616e20617574686f72697a65642063616c6c00000081525060200191505060405180910390fd5b806000806101000a81548173ffffffffffffffffffffffffffffffffffffffff021916908373ffffffffffffffffffffffffffffffffffffffff1602179055506000809054906101000a900473ffffffffffffffffffffffffffffffffffffffff1673ffffffffffffffffffffffffffffffffffffffff167f1abebea81bfa2637f28358c371278fb15ede7ea8dd28d2e03b112ff6d936ada460405160405180910390a250565b600160009054906101000a900473ffffffffffffffffffffffffffffffffffffffff1681565b60008060043591506024359050813373ffffffffffffffffffffffffffffffffffffffff166000357fffffffff00000000000000000000000000000000000000000000000000000000167bffffffffffffffffffffffffffffffffffffffffffffffffffffffff19167f644843f351d3fba4abcd60109eaff9f54bac8fb8ccf0bab941009c21df21cf31843460003660405180858152602001848152602001806020018281038252848482818152602001925080828437600081840152601f19601f8201169050808301925050509550505050505060405180910390a46116e2336000357fffffffff0000000000000000000000000000000000000000000000000000000016611fdb565b1515611756576040517f08c379a000000000000000000000000000000000000000000000000000000000815260040180806020018281038252601d8152602001807f4974206d75737420626520616e20617574686f72697a65642063616c6c00000081525060200191505060405180910390fd5b6000600160146101000a81548160ff0219169083151502179055505050565b6005600c9054906101000a90046bffffffffffffffffffffffff1681565b60008060043591506024359050813373ffffffffffffffffffffffffffffffffffffffff166000357fffffffff00000000000000000000000000000000000000000000000000000000167bffffffffffffffffffffffffffffffffffffffffffffffffffffffff19167f644843f351d3fba4abcd60109eaff9f54bac8fb8ccf0bab941009c21df21cf31843460003660405180858152602001848152602001806020018281038252848482818152602001925080828437600081840152601f19601f8201169050808301925050509550505050505060405180910390a461189e336000357fffffffff0000000000000000000000000000000000000000000000000000000016611fdb565b1515611912576040517f08c379a000000000000000000000000000000000000000000000000000000000815260040180806020018281038252601d8152602001807f4974206d75737420626520616e20617574686f72697a65642063616c6c00000081525060200191505060405180910390fd5b600074010000000000000000000000000000000000000000028473ffffffffffffffffffffffffffffffffffffffff1916141515156119b9576040517f08c379a00000000000000000000000000000000000000000000000000000000081526004018080602001828103825260118152602001807f706f732063616e6e6f742062652030783000000000000000000000000000000081525060200191505060405180910390fd5b600073ffffffffffffffffffffffffffffffffffffffff168373ffffffffffffffffffffffffffffffffffffffff161480611a82575060007401000000000000000000000000000000000000000002600460008573ffffffffffffffffffffffffffffffffffffffff1673ffffffffffffffffffffffffffffffffffffffff16815260200190815260200160002060009054906101000a9004740100000000000000000000000000000000000000000273ffffffffffffffffffffffffffffffffffffffff1916145b1515611b1c576040517f08c379a00000000000000000000000000000000000000000000000000000000081526004018080602001828103825260258152602001807f776174206973206e6f7420646566696e6564206f722069742068617320616e2081526020017f696e64657800000000000000000000000000000000000000000000000000000081525060400191505060405180910390fd5b6000740100000000000000000000000000000000000000000260046000600360008873ffffffffffffffffffffffffffffffffffffffff191673ffffffffffffffffffffffffffffffffffffffff1916815260200190815260200160002060009054906101000a900473ffffffffffffffffffffffffffffffffffffffff1673ffffffffffffffffffffffffffffffffffffffff1673ffffffffffffffffffffffffffffffffffffffff16815260200190815260200160002060006101000a8154816bffffffffffffffffffffffff02191690837401000000000000000000000000000000000000000090040217905550600073ffffffffffffffffffffffffffffffffffffffff168373ffffffffffffffffffffffffffffffffffffffff16141515611cbc5783600460008573ffffffffffffffffffffffffffffffffffffffff1673ffffffffffffffffffffffffffffffffffffffff16815260200190815260200160002060006101000a8154816bffffffffffffffffffffffff021916908374010000000000000000000000000000000000000000900402179055505b82600360008673ffffffffffffffffffffffffffffffffffffffff191673ffffffffffffffffffffffffffffffffffffffff1916815260200190815260200160002060006101000a81548173ffffffffffffffffffffffffffffffffffffffff021916908373ffffffffffffffffffffffffffffffffffffffff16021790555050505050565b6000809054906101000a900473ffffffffffffffffffffffffffffffffffffffff1681565b611d72816000611793565b50565b60008060043591506024359050813373ffffffffffffffffffffffffffffffffffffffff166000357fffffffff00000000000000000000000000000000000000000000000000000000167bffffffffffffffffffffffffffffffffffffffffffffffffffffffff19167f644843f351d3fba4abcd60109eaff9f54bac8fb8ccf0bab941009c21df21cf31843460003660405180858152602001848152602001806020018281038252848482818152602001925080828437600081840152601f19601f8201169050808301925050509550505050505060405180910390a4611e80336000357fffffffff0000000000000000000000000000000000000000000000000000000016611fdb565b1515611ef4576040517f08c379a000000000000000000000000000000000000000000000000000000000815260040180806020018281038252601d8152602001807f4974206d75737420626520616e20617574686f72697a65642063616c6c00000081525060200191505060405180910390fd5b600074010000000000000000000000000000000000000000028373ffffffffffffffffffffffffffffffffffffffff191614151515611f9b576040517f08c379a00000000000000000000000000000000000000000000000000000000081526004018080602001828103825260128152602001807f6e6578742063616e6e6f7420626520307830000000000000000000000000000081525060200191505060405180910390fd5b82600560006101000a8154816bffffffffffffffffffffffff02191690837401000000000000000000000000000000000000000090040217905550505050565b60003073ffffffffffffffffffffffffffffffffffffffff168373ffffffffffffffffffffffffffffffffffffffff16141561201a576001905061224a565b600160009054906101000a900473ffffffffffffffffffffffffffffffffffffffff1673ffffffffffffffffffffffffffffffffffffffff168373ffffffffffffffffffffffffffffffffffffffff161415612079576001905061224a565b600073ffffffffffffffffffffffffffffffffffffffff166000809054906101000a900473ffffffffffffffffffffffffffffffffffffffff1673ffffffffffffffffffffffffffffffffffffffff1614156120d8576000905061224a565b6000809054906101000a900473ffffffffffffffffffffffffffffffffffffffff1673ffffffffffffffffffffffffffffffffffffffff1663b70096138430856040518463ffffffff167c0100000000000000000000000000000000000000000000000000000000028152600401808473ffffffffffffffffffffffffffffffffffffffff1673ffffffffffffffffffffffffffffffffffffffff1681526020018373ffffffffffffffffffffffffffffffffffffffff1673ffffffffffffffffffffffffffffffffffffffff168152602001827bffffffffffffffffffffffffffffffffffffffffffffffffffffffff19167bffffffffffffffffffffffffffffffffffffffffffffffffffffffff19168152602001935050505060206040518083038186803b15801561220c57600080fd5b505afa158015612220573d6000803e3d6000fd5b505050506040513d602081101561223657600080fd5b810190808051906020019092919050505090505b92915050565b6000826fffffffffffffffffffffffffffffffff168284019150816fffffffffffffffffffffffffffffffff161015151561228757fe5b92915050565b6000612315826fffffffffffffffffffffffffffffffff166002846fffffffffffffffffffffffffffffffff168115156122c357fe5b046fffffffffffffffffffffffffffffffff16670de0b6b3a76400006fffffffffffffffffffffffffffffffff16866fffffffffffffffffffffffffffffffff16020181151561230f57fe5b0461231d565b905092915050565b600081829150816fffffffffffffffffffffffffffffffff1614151561233f57fe5b91905056fea165627a7a72305820df916d0753f72a1b6f268d8f92710bd382aa87571588d2bb0411b55043dbb0470029",
  "source": "pragma solidity ^0.5.0;\n\nimport \"./DSValue.sol\";\n\n\ncontract Medianizer is DSValue {\n    mapping(bytes12 => address) public values;\n    mapping(address => bytes12) public indexes;\n    bytes12 public next = bytes12(uint96(1));\n    uint96 public minimun = 0x1;\n\n    function set(address wat) public auth {\n        bytes12 nextId = bytes12(uint96(next) + 1);\n        assert(nextId != 0x0);\n        set(next, wat);\n        next = nextId;\n    }\n\n    function set(bytes12 pos, address wat) public payable note auth {\n        require(pos != 0x0, \"pos cannot be 0x0\");\n        require(wat == address(0) || indexes[wat] == 0, \"wat is not defined or it has an index\");\n\n        indexes[values[pos]] = bytes12(0); // Making sure to remove a possible existing address in that position\n\n        if (wat != address(0)) {\n            indexes[wat] = pos;\n        }\n\n        values[pos] = wat;\n    }\n\n    function setMin(uint96 min_) public payable note auth {\n        require(min_ != 0x0, \"min cannot be 0x0\");\n        minimun = min_;\n    }\n\n    function setNext(bytes12 next_) public payable note auth {\n        require(next_ != 0x0, \"next cannot be 0x0\");\n        next = next_;\n    }\n\n    function unset(bytes12 pos) public {\n        set(pos, address(0));\n    }\n\n    function unset(address wat) public {\n        set(indexes[wat], address(0));\n    }\n\n    function poke() public {\n        poke(0);\n    }\n\n    function poke(bytes32) public payable note {\n        (val, has) = compute();\n    }\n\n    function compute() public view returns (bytes32, bool) {\n        bytes32[] memory wuts = new bytes32[](uint96(next) - 1);\n        uint96 ctr = 0;\n        for (uint96 i = 1; i < uint96(next); i++) {\n            if (values[bytes12(i)] != address(0)) {\n                (bytes32 wut, bool wuz) = DSValue(values[bytes12(i)]).peek();\n                if (wuz) {\n                    if (ctr == 0 || wut >= wuts[ctr - 1]) {\n                        wuts[ctr] = wut;\n                    } else {\n                        uint96 j = 0;\n                        while (wut >= wuts[j]) {\n                            j++;\n                        }\n                        for (uint96 k = ctr; k > j; k--) {\n                            wuts[k] = wuts[k - 1];\n                        }\n                        wuts[j] = wut;\n                    }\n                    ctr++;\n                }\n            }\n        }\n\n        if (ctr < minimun)\n            return (val, false);\n\n        bytes32 value;\n        if (ctr % 2 == 0) {\n            uint128 val1 = uint128(uint(wuts[(ctr / 2) - 1]));\n            uint128 val2 = uint128(uint(wuts[ctr / 2]));\n            value = bytes32(uint256(wdiv(hadd(val1, val2), 2 ether)));\n        } else {\n            value = wuts[(ctr - 1) / 2];\n        }\n\n        return (value, true);\n    }\n}\n",
  "sourcePath": "/home/arct/projects/etherHedgeProject/contracts/Oracle/Medianizer.sol",
  "compiler": {
    "name": "solc",
    "version": "0.5.0+commit.1d4f565a.Emscripten.clang"
  },
  "schemaVersion": "3.0.6",
  "updatedAt": "2019-05-18T21:05:50.933Z",
  "devdoc": {
    "methods": {}
  },
  "userdoc": {
    "methods": {}
  }
}