{
  "contractName": "Meta",
  "abi": [
    {
      "constant": true,
      "inputs": [],
      "name": "contractToken",
      "outputs": [
        {
          "name": "",
          "type": "address"
        }
      ],
      "payable": false,
      "stateMutability": "view",
      "type": "function"
    },
    {
      "constant": true,
      "inputs": [],
      "name": "name",
      "outputs": [
        {
          "name": "",
          "type": "string"
        }
      ],
      "payable": false,
      "stateMutability": "view",
      "type": "function"
    },
    {
      "constant": true,
      "inputs": [],
      "name": "urlMobileVersion",
      "outputs": [
        {
          "name": "",
          "type": "string"
        }
      ],
      "payable": false,
      "stateMutability": "view",
      "type": "function"
    },
    {
      "constant": true,
      "inputs": [],
      "name": "settingsAddress",
      "outputs": [
        {
          "name": "",
          "type": "address"
        }
      ],
      "payable": false,
      "stateMutability": "view",
      "type": "function"
    },
    {
      "constant": true,
      "inputs": [],
      "name": "urlWebVersion",
      "outputs": [
        {
          "name": "",
          "type": "string"
        }
      ],
      "payable": false,
      "stateMutability": "view",
      "type": "function"
    },
    {
      "constant": false,
      "inputs": [],
      "name": "renounceOwnership",
      "outputs": [],
      "payable": false,
      "stateMutability": "nonpayable",
      "type": "function"
    },
    {
      "constant": true,
      "inputs": [],
      "name": "description",
      "outputs": [
        {
          "name": "",
          "type": "string"
        }
      ],
      "payable": false,
      "stateMutability": "view",
      "type": "function"
    },
    {
      "constant": true,
      "inputs": [],
      "name": "urlDownloadVersion",
      "outputs": [
        {
          "name": "",
          "type": "string"
        }
      ],
      "payable": false,
      "stateMutability": "view",
      "type": "function"
    },
    {
      "constant": true,
      "inputs": [],
      "name": "owner",
      "outputs": [
        {
          "name": "",
          "type": "address"
        }
      ],
      "payable": false,
      "stateMutability": "view",
      "type": "function"
    },
    {
      "constant": true,
      "inputs": [],
      "name": "isOwner",
      "outputs": [
        {
          "name": "",
          "type": "bool"
        }
      ],
      "payable": false,
      "stateMutability": "view",
      "type": "function"
    },
    {
      "constant": true,
      "inputs": [],
      "name": "author",
      "outputs": [
        {
          "name": "",
          "type": "string"
        }
      ],
      "payable": false,
      "stateMutability": "view",
      "type": "function"
    },
    {
      "constant": true,
      "inputs": [],
      "name": "depositoryAddress",
      "outputs": [
        {
          "name": "",
          "type": "address"
        }
      ],
      "payable": false,
      "stateMutability": "view",
      "type": "function"
    },
    {
      "constant": false,
      "inputs": [
        {
          "name": "newOwner",
          "type": "address"
        }
      ],
      "name": "transferOwnership",
      "outputs": [],
      "payable": false,
      "stateMutability": "nonpayable",
      "type": "function"
    },
    {
      "inputs": [
        {
          "name": "_name",
          "type": "string"
        },
        {
          "name": "_description",
          "type": "string"
        },
        {
          "name": "_author",
          "type": "string"
        },
        {
          "name": "_urlWebVersion",
          "type": "string"
        },
        {
          "name": "_urlDownloadVersion",
          "type": "string"
        },
        {
          "name": "_urlMobileVersion",
          "type": "string"
        },
        {
          "name": "_depositoryAddress",
          "type": "address"
        },
        {
          "name": "_settingsAddress",
          "type": "address"
        },
        {
          "name": "_contractToken",
          "type": "address"
        },
        {
          "name": "_keywords",
          "type": "bytes32[]"
        }
      ],
      "payable": false,
      "stateMutability": "nonpayable",
      "type": "constructor"
    },
    {
      "anonymous": false,
      "inputs": [
        {
          "indexed": true,
          "name": "previousOwner",
          "type": "address"
        },
        {
          "indexed": true,
          "name": "newOwner",
          "type": "address"
        }
      ],
      "name": "OwnershipTransferred",
      "type": "event"
    },
    {
      "constant": false,
      "inputs": [
        {
          "name": "_name",
          "type": "string"
        }
      ],
      "name": "setName",
      "outputs": [],
      "payable": false,
      "stateMutability": "nonpayable",
      "type": "function"
    },
    {
      "constant": false,
      "inputs": [
        {
          "name": "_description",
          "type": "string"
        }
      ],
      "name": "setDescription",
      "outputs": [],
      "payable": false,
      "stateMutability": "nonpayable",
      "type": "function"
    },
    {
      "constant": false,
      "inputs": [
        {
          "name": "_urlDownloadVersion",
          "type": "string"
        }
      ],
      "name": "setUrlDownloadVersion",
      "outputs": [],
      "payable": false,
      "stateMutability": "nonpayable",
      "type": "function"
    },
    {
      "constant": false,
      "inputs": [
        {
          "name": "_urlMobileVersion",
          "type": "string"
        }
      ],
      "name": "setUrlMobileVersion",
      "outputs": [],
      "payable": false,
      "stateMutability": "nonpayable",
      "type": "function"
    },
    {
      "constant": false,
      "inputs": [
        {
          "name": "_keywords",
          "type": "bytes32[]"
        }
      ],
      "name": "setKeywords",
      "outputs": [],
      "payable": false,
      "stateMutability": "nonpayable",
      "type": "function"
    }
  ],
  "bytecode": "0x60806040523480156200001157600080fd5b5060405162001aab38038062001aab83398101806040526101408110156200003857600080fd5b8101908080516401000000008111156200005157600080fd5b828101905060208101848111156200006857600080fd5b81518560018202830111640100000000821117156200008657600080fd5b50509291906020018051640100000000811115620000a357600080fd5b82810190506020810184811115620000ba57600080fd5b8151856001820283011164010000000082111715620000d857600080fd5b50509291906020018051640100000000811115620000f557600080fd5b828101905060208101848111156200010c57600080fd5b81518560018202830111640100000000821117156200012a57600080fd5b505092919060200180516401000000008111156200014757600080fd5b828101905060208101848111156200015e57600080fd5b81518560018202830111640100000000821117156200017c57600080fd5b505092919060200180516401000000008111156200019957600080fd5b82810190506020810184811115620001b057600080fd5b8151856001820283011164010000000082111715620001ce57600080fd5b50509291906020018051640100000000811115620001eb57600080fd5b828101905060208101848111156200020257600080fd5b81518560018202830111640100000000821117156200022057600080fd5b505092919060200180519060200190929190805190602001909291908051906020019092919080516401000000008111156200025b57600080fd5b828101905060208101848111156200027257600080fd5b81518560208202830111640100000000821117156200029057600080fd5b5050929190505050336000806101000a81548173ffffffffffffffffffffffffffffffffffffffff021916908373ffffffffffffffffffffffffffffffffffffffff1602179055506000809054906101000a900473ffffffffffffffffffffffffffffffffffffffff1673ffffffffffffffffffffffffffffffffffffffff16600073ffffffffffffffffffffffffffffffffffffffff167f8be0079c531659141344cd1fd0a4f28419497f9722a3daafe3b4186f6b6457e060405160405180910390a36200036e33620004f0640100000000026401000000009004565b89600190805190602001906200038692919062000684565b5088600290805190602001906200039f92919062000684565b508760069080519060200190620003b892919062000684565b508660039080519060200190620003d192919062000684565b508560049080519060200190620003ea92919062000684565b5084600590805190602001906200040392919062000684565b5083600860006101000a81548173ffffffffffffffffffffffffffffffffffffffff021916908373ffffffffffffffffffffffffffffffffffffffff16021790555082600960006101000a81548173ffffffffffffffffffffffffffffffffffffffff021916908373ffffffffffffffffffffffffffffffffffffffff16021790555081600a60006101000a81548173ffffffffffffffffffffffffffffffffffffffff021916908373ffffffffffffffffffffffffffffffffffffffff1602179055508060079080519060200190620004df9291906200070b565b5050505050505050505050620007ad565b6200050962000532640100000000026401000000009004565b15156200051557600080fd5b6200052f8162000589640100000000026401000000009004565b50565b60008060009054906101000a900473ffffffffffffffffffffffffffffffffffffffff1673ffffffffffffffffffffffffffffffffffffffff163373ffffffffffffffffffffffffffffffffffffffff1614905090565b600073ffffffffffffffffffffffffffffffffffffffff168173ffffffffffffffffffffffffffffffffffffffff1614151515620005c657600080fd5b8073ffffffffffffffffffffffffffffffffffffffff166000809054906101000a900473ffffffffffffffffffffffffffffffffffffffff1673ffffffffffffffffffffffffffffffffffffffff167f8be0079c531659141344cd1fd0a4f28419497f9722a3daafe3b4186f6b6457e060405160405180910390a3806000806101000a81548173ffffffffffffffffffffffffffffffffffffffff021916908373ffffffffffffffffffffffffffffffffffffffff16021790555050565b828054600181600116156101000203166002900490600052602060002090601f016020900481019282601f10620006c757805160ff1916838001178555620006f8565b82800160010185558215620006f8579182015b82811115620006f7578251825591602001919060010190620006da565b5b5090506200070791906200075d565b5090565b8280548282559060005260206000209081019282156200074a579160200282015b82811115620007495782518255916020019190600101906200072c565b5b50905062000759919062000785565b5090565b6200078291905b808211156200077e57600081600090555060010162000764565b5090565b90565b620007aa91905b80821115620007a65760008160009055506001016200078c565b5090565b90565b6112ee80620007bd6000396000f3fe6080604052600436106100fc576000357c0100000000000000000000000000000000000000000000000000000000900463ffffffff16806305b39f8a1461010157806306fdde03146101585780630b46ae06146101e857806340373c8614610278578063417d450d146102cf57806343f42f521461035f578063715018a6146104275780637284e4161461043e5780638ba0645f146104ce5780638da5cb5b1461055e5780638f32d59b146105b557806390c3f38f146105e4578063a6c3e6b9146106ac578063a6cce4dd1461073c578063c47f002714610793578063c51c54e71461085b578063cb75120e14610920578063f2fde38b146109e8575b600080fd5b34801561010d57600080fd5b50610116610a39565b604051808273ffffffffffffffffffffffffffffffffffffffff1673ffffffffffffffffffffffffffffffffffffffff16815260200191505060405180910390f35b34801561016457600080fd5b5061016d610a5f565b6040518080602001828103825283818151815260200191508051906020019080838360005b838110156101ad578082015181840152602081019050610192565b50505050905090810190601f1680156101da5780820380516001836020036101000a031916815260200191505b509250505060405180910390f35b3480156101f457600080fd5b506101fd610afd565b6040518080602001828103825283818151815260200191508051906020019080838360005b8381101561023d578082015181840152602081019050610222565b50505050905090810190601f16801561026a5780820380516001836020036101000a031916815260200191505b509250505060405180910390f35b34801561028457600080fd5b5061028d610b9b565b604051808273ffffffffffffffffffffffffffffffffffffffff1673ffffffffffffffffffffffffffffffffffffffff16815260200191505060405180910390f35b3480156102db57600080fd5b506102e4610bc1565b6040518080602001828103825283818151815260200191508051906020019080838360005b83811015610324578082015181840152602081019050610309565b50505050905090810190601f1680156103515780820380516001836020036101000a031916815260200191505b509250505060405180910390f35b34801561036b57600080fd5b506104256004803603602081101561038257600080fd5b810190808035906020019064010000000081111561039f57600080fd5b8201836020820111156103b157600080fd5b803590602001918460018302840111640100000000831117156103d357600080fd5b91908080601f016020809104026020016040519081016040528093929190818152602001838380828437600081840152601f19601f820116905080830192505050505050509192919290505050610c5f565b005b34801561043357600080fd5b5061043c610c8c565b005b34801561044a57600080fd5b50610453610d5e565b6040518080602001828103825283818151815260200191508051906020019080838360005b83811015610493578082015181840152602081019050610478565b50505050905090810190601f1680156104c05780820380516001836020036101000a031916815260200191505b509250505060405180910390f35b3480156104da57600080fd5b506104e3610dfc565b6040518080602001828103825283818151815260200191508051906020019080838360005b83811015610523578082015181840152602081019050610508565b50505050905090810190601f1680156105505780820380516001836020036101000a031916815260200191505b509250505060405180910390f35b34801561056a57600080fd5b50610573610e9a565b604051808273ffffffffffffffffffffffffffffffffffffffff1673ffffffffffffffffffffffffffffffffffffffff16815260200191505060405180910390f35b3480156105c157600080fd5b506105ca610ec3565b604051808215151515815260200191505060405180910390f35b3480156105f057600080fd5b506106aa6004803603602081101561060757600080fd5b810190808035906020019064010000000081111561062457600080fd5b82018360208201111561063657600080fd5b8035906020019184600183028401116401000000008311171561065857600080fd5b91908080601f016020809104026020016040519081016040528093929190818152602001838380828437600081840152601f19601f820116905080830192505050505050509192919290505050610f1a565b005b3480156106b857600080fd5b506106c1610f47565b6040518080602001828103825283818151815260200191508051906020019080838360005b838110156107015780820151818401526020810190506106e6565b50505050905090810190601f16801561072e5780820380516001836020036101000a031916815260200191505b509250505060405180910390f35b34801561074857600080fd5b50610751610fe5565b604051808273ffffffffffffffffffffffffffffffffffffffff1673ffffffffffffffffffffffffffffffffffffffff16815260200191505060405180910390f35b34801561079f57600080fd5b50610859600480360360208110156107b657600080fd5b81019080803590602001906401000000008111156107d357600080fd5b8201836020820111156107e557600080fd5b8035906020019184600183028401116401000000008311171561080757600080fd5b91908080601f016020809104026020016040519081016040528093929190818152602001838380828437600081840152601f19601f82011690508083019250505050505050919291929050505061100b565b005b34801561086757600080fd5b5061091e6004803603602081101561087e57600080fd5b810190808035906020019064010000000081111561089b57600080fd5b8201836020820111156108ad57600080fd5b803590602001918460208302840111640100000000831117156108cf57600080fd5b919080806020026020016040519081016040528093929190818152602001838360200280828437600081840152601f19601f820116905080830192505050505050509192919290505050611038565b005b34801561092c57600080fd5b506109e66004803603602081101561094357600080fd5b810190808035906020019064010000000081111561096057600080fd5b82018360208201111561097257600080fd5b8035906020019184600183028401116401000000008311171561099457600080fd5b91908080601f016020809104026020016040519081016040528093929190818152602001838380828437600081840152601f19601f820116905080830192505050505050509192919290505050611065565b005b3480156109f457600080fd5b50610a3760048036036020811015610a0b57600080fd5b81019080803573ffffffffffffffffffffffffffffffffffffffff169060200190929190505050611092565b005b600a60009054906101000a900473ffffffffffffffffffffffffffffffffffffffff1681565b60018054600181600116156101000203166002900480601f016020809104026020016040519081016040528092919081815260200182805460018160011615610100020316600290048015610af55780601f10610aca57610100808354040283529160200191610af5565b820191906000526020600020905b815481529060010190602001808311610ad857829003601f168201915b505050505081565b60058054600181600116156101000203166002900480601f016020809104026020016040519081016040528092919081815260200182805460018160011615610100020316600290048015610b935780601f10610b6857610100808354040283529160200191610b93565b820191906000526020600020905b815481529060010190602001808311610b7657829003601f168201915b505050505081565b600960009054906101000a900473ffffffffffffffffffffffffffffffffffffffff1681565b60038054600181600116156101000203166002900480601f016020809104026020016040519081016040528092919081815260200182805460018160011615610100020316600290048015610c575780601f10610c2c57610100808354040283529160200191610c57565b820191906000526020600020905b815481529060010190602001808311610c3a57829003601f168201915b505050505081565b610c67610ec3565b1515610c7257600080fd5b8060059080519060200190610c889291906111ab565b5050565b610c94610ec3565b1515610c9f57600080fd5b600073ffffffffffffffffffffffffffffffffffffffff166000809054906101000a900473ffffffffffffffffffffffffffffffffffffffff1673ffffffffffffffffffffffffffffffffffffffff167f8be0079c531659141344cd1fd0a4f28419497f9722a3daafe3b4186f6b6457e060405160405180910390a360008060006101000a81548173ffffffffffffffffffffffffffffffffffffffff021916908373ffffffffffffffffffffffffffffffffffffffff160217905550565b60028054600181600116156101000203166002900480601f016020809104026020016040519081016040528092919081815260200182805460018160011615610100020316600290048015610df45780601f10610dc957610100808354040283529160200191610df4565b820191906000526020600020905b815481529060010190602001808311610dd757829003601f168201915b505050505081565b60048054600181600116156101000203166002900480601f016020809104026020016040519081016040528092919081815260200182805460018160011615610100020316600290048015610e925780601f10610e6757610100808354040283529160200191610e92565b820191906000526020600020905b815481529060010190602001808311610e7557829003601f168201915b505050505081565b60008060009054906101000a900473ffffffffffffffffffffffffffffffffffffffff16905090565b60008060009054906101000a900473ffffffffffffffffffffffffffffffffffffffff1673ffffffffffffffffffffffffffffffffffffffff163373ffffffffffffffffffffffffffffffffffffffff1614905090565b610f22610ec3565b1515610f2d57600080fd5b8060029080519060200190610f439291906111ab565b5050565b60068054600181600116156101000203166002900480601f016020809104026020016040519081016040528092919081815260200182805460018160011615610100020316600290048015610fdd5780601f10610fb257610100808354040283529160200191610fdd565b820191906000526020600020905b815481529060010190602001808311610fc057829003601f168201915b505050505081565b600860009054906101000a900473ffffffffffffffffffffffffffffffffffffffff1681565b611013610ec3565b151561101e57600080fd5b80600190805190602001906110349291906111ab565b5050565b611040610ec3565b151561104b57600080fd5b806007908051906020019061106192919061122b565b5050565b61106d610ec3565b151561107857600080fd5b806004908051906020019061108e9291906111ab565b5050565b61109a610ec3565b15156110a557600080fd5b6110ae816110b1565b50565b600073ffffffffffffffffffffffffffffffffffffffff168173ffffffffffffffffffffffffffffffffffffffff16141515156110ed57600080fd5b8073ffffffffffffffffffffffffffffffffffffffff166000809054906101000a900473ffffffffffffffffffffffffffffffffffffffff1673ffffffffffffffffffffffffffffffffffffffff167f8be0079c531659141344cd1fd0a4f28419497f9722a3daafe3b4186f6b6457e060405160405180910390a3806000806101000a81548173ffffffffffffffffffffffffffffffffffffffff021916908373ffffffffffffffffffffffffffffffffffffffff16021790555050565b828054600181600116156101000203166002900490600052602060002090601f016020900481019282601f106111ec57805160ff191683800117855561121a565b8280016001018555821561121a579182015b828111156112195782518255916020019190600101906111fe565b5b5090506112279190611278565b5090565b828054828255906000526020600020908101928215611267579160200282015b8281111561126657825182559160200191906001019061124b565b5b509050611274919061129d565b5090565b61129a91905b8082111561129657600081600090555060010161127e565b5090565b90565b6112bf91905b808211156112bb5760008160009055506001016112a3565b5090565b9056fea165627a7a723058205445a5bf9ed1aaa820d76c515a3f993fe7712a8ab1c1cf6df05bcdfb0c3d52820029",
  "source": "pragma solidity ^0.5.0;\nimport \"openzeppelin-solidity/contracts/ownership/Ownable.sol\";\n\n\ncontract Meta is Ownable {\n\n    // Meta variables\n\n    string public name;\n    string public description;\n    string public urlWebVersion;\n    string public urlDownloadVersion;\n    string public urlMobileVersion;\n    string public author;\n    bytes32[] keywords;\n\n    address public depositoryAddress;\n    address public settingsAddress;\n    address public contractToken;\n\n    constructor(\n        string memory _name, \n        string memory _description,\n        string memory _author,\n        string memory _urlWebVersion,\n        string memory _urlDownloadVersion,\n        string memory _urlMobileVersion,\n\n\n        address _depositoryAddress,\n        address _settingsAddress,\n        address _contractToken,\n\n        bytes32[] memory _keywords\n    )\n        public Ownable() {\n            transferOwnership(msg.sender);\n            name = _name;\n            description = _description;\n            author = _author;\n            urlWebVersion = _urlWebVersion;\n            urlDownloadVersion = _urlDownloadVersion;\n            urlMobileVersion = _urlMobileVersion;\n            depositoryAddress = _depositoryAddress;\n            settingsAddress = _settingsAddress;\n            contractToken = _contractToken;\n            keywords = _keywords;\n        }\n\n\n    function setName (string memory _name) public onlyOwner {\n        name = _name;\n    }\n\n    function setDescription (string memory _description) public onlyOwner {\n        description = _description;\n    }\n\n    function setUrlDownloadVersion (string memory _urlDownloadVersion) public onlyOwner {\n        urlDownloadVersion = _urlDownloadVersion;\n    }\n\n    function setUrlMobileVersion (string memory _urlMobileVersion) public onlyOwner {\n        urlMobileVersion = _urlMobileVersion;\n    }\n\n    function setKeywords (bytes32[] memory _keywords) public onlyOwner {\n        keywords = _keywords;\n    }\n\n\n\n\n\n\n}\n",
  "sourcePath": "/home/arct/projects/etherHedgeProject/contracts/Meta.sol",
  "compiler": {
    "name": "solc",
    "version": "0.5.0+commit.1d4f565a.Emscripten.clang"
  },
  "schemaVersion": "3.0.6",
  "updatedAt": "2019-05-18T21:05:50.926Z",
  "devdoc": {
    "methods": {
      "isOwner()": {
        "return": "true if `msg.sender` is the owner of the contract."
      },
      "owner()": {
        "return": "the address of the owner."
      },
      "renounceOwnership()": {
        "details": "Allows the current owner to relinquish control of the contract. It will not be possible to call the functions with the `onlyOwner` modifier anymore."
      },
      "transferOwnership(address)": {
        "details": "Allows the current owner to transfer control of the contract to a newOwner.",
        "params": {
          "newOwner": "The address to transfer ownership to."
        }
      }
    }
  },
  "userdoc": {
    "methods": {
      "renounceOwnership()": {
        "notice": "Renouncing ownership will leave the contract without an owner, thereby removing any functionality that is only available to the owner."
      }
    }
  }
}