{
  "contractName": "PriceFeed",
  "abi": [
    {
      "constant": false,
      "inputs": [
        {
          "name": "owner_",
          "type": "address"
        }
      ],
      "name": "setOwner",
      "outputs": [],
      "payable": false,
      "stateMutability": "nonpayable",
      "type": "function"
    },
    {
      "constant": false,
      "inputs": [
        {
          "name": "authority_",
          "type": "address"
        }
      ],
      "name": "setAuthority",
      "outputs": [],
      "payable": false,
      "stateMutability": "nonpayable",
      "type": "function"
    },
    {
      "constant": true,
      "inputs": [],
      "name": "owner",
      "outputs": [
        {
          "name": "",
          "type": "address"
        }
      ],
      "payable": false,
      "stateMutability": "view",
      "type": "function"
    },
    {
      "constant": true,
      "inputs": [],
      "name": "zzz",
      "outputs": [
        {
          "name": "",
          "type": "uint32"
        }
      ],
      "payable": false,
      "stateMutability": "view",
      "type": "function"
    },
    {
      "constant": true,
      "inputs": [],
      "name": "authority",
      "outputs": [
        {
          "name": "",
          "type": "address"
        }
      ],
      "payable": false,
      "stateMutability": "view",
      "type": "function"
    },
    {
      "anonymous": false,
      "inputs": [
        {
          "indexed": true,
          "name": "sig",
          "type": "bytes4"
        },
        {
          "indexed": true,
          "name": "guy",
          "type": "address"
        },
        {
          "indexed": true,
          "name": "foo",
          "type": "bytes32"
        },
        {
          "indexed": false,
          "name": "bar",
          "type": "bytes32"
        },
        {
          "indexed": false,
          "name": "wad",
          "type": "uint256"
        },
        {
          "indexed": false,
          "name": "fax",
          "type": "bytes"
        }
      ],
      "name": "LogNote",
      "type": "event"
    },
    {
      "anonymous": false,
      "inputs": [
        {
          "indexed": true,
          "name": "authority",
          "type": "address"
        }
      ],
      "name": "LogSetAuthority",
      "type": "event"
    },
    {
      "anonymous": false,
      "inputs": [
        {
          "indexed": true,
          "name": "owner",
          "type": "address"
        }
      ],
      "name": "LogSetOwner",
      "type": "event"
    },
    {
      "constant": true,
      "inputs": [],
      "name": "peek",
      "outputs": [
        {
          "name": "",
          "type": "bytes32"
        },
        {
          "name": "",
          "type": "bool"
        }
      ],
      "payable": false,
      "stateMutability": "view",
      "type": "function"
    },
    {
      "constant": true,
      "inputs": [],
      "name": "read",
      "outputs": [
        {
          "name": "",
          "type": "bytes32"
        }
      ],
      "payable": false,
      "stateMutability": "view",
      "type": "function"
    },
    {
      "constant": false,
      "inputs": [
        {
          "name": "val_",
          "type": "uint128"
        },
        {
          "name": "zzz_",
          "type": "uint32"
        },
        {
          "name": "med_",
          "type": "address"
        }
      ],
      "name": "post",
      "outputs": [],
      "payable": true,
      "stateMutability": "payable",
      "type": "function"
    },
    {
      "constant": false,
      "inputs": [],
      "name": "void",
      "outputs": [],
      "payable": true,
      "stateMutability": "payable",
      "type": "function"
    }
  ],
  "bytecode": "0x608060405233600160006101000a81548173ffffffffffffffffffffffffffffffffffffffff021916908373ffffffffffffffffffffffffffffffffffffffff1602179055503373ffffffffffffffffffffffffffffffffffffffff167fce241d7ca1f669fee44b6fc00b8eba2df3bb514eed0f6f668f8f89096e81ed9460405160405180910390a2610e85806100976000396000f3fe608060405260043610610099576000357c0100000000000000000000000000000000000000000000000000000000900463ffffffff16806313af40351461009e57806357de26a4146100ef57806359e02dd71461011a5780635a686699146101505780637a9e5e4b146101c05780638da5cb5b14610211578063a4dff0a214610268578063ac4c25b21461029f578063bf7e214f146102a9575b600080fd5b3480156100aa57600080fd5b506100ed600480360360208110156100c157600080fd5b81019080803573ffffffffffffffffffffffffffffffffffffffff169060200190929190505050610300565b005b3480156100fb57600080fd5b5061010461044b565b6040518082815260200191505060405180910390f35b34801561012657600080fd5b5061012f6104a9565b60405180838152602001821515151581526020019250505060405180910390f35b6101be6004803603606081101561016657600080fd5b8101908080356fffffffffffffffffffffffffffffffff169060200190929190803563ffffffff169060200190929190803573ffffffffffffffffffffffffffffffffffffffff169060200190929190505050610503565b005b3480156101cc57600080fd5b5061020f600480360360208110156101e357600080fd5b81019080803573ffffffffffffffffffffffffffffffffffffffff169060200190929190505050610895565b005b34801561021d57600080fd5b506102266109de565b604051808273ffffffffffffffffffffffffffffffffffffffff1673ffffffffffffffffffffffffffffffffffffffff16815260200191505060405180910390f35b34801561027457600080fd5b5061027d610a04565b604051808263ffffffff1663ffffffff16815260200191505060405180910390f35b6102a7610a1a565b005b3480156102b557600080fd5b506102be610bbf565b604051808273ffffffffffffffffffffffffffffffffffffffff1673ffffffffffffffffffffffffffffffffffffffff16815260200191505060405180910390f35b61032e336000357fffffffff0000000000000000000000000000000000000000000000000000000016610be4565b15156103a2576040517f08c379a000000000000000000000000000000000000000000000000000000000815260040180806020018281038252601d8152602001807f4974206d75737420626520616e20617574686f72697a65642063616c6c00000081525060200191505060405180910390fd5b80600160006101000a81548173ffffffffffffffffffffffffffffffffffffffff021916908373ffffffffffffffffffffffffffffffffffffffff160217905550600160009054906101000a900473ffffffffffffffffffffffffffffffffffffffff1673ffffffffffffffffffffffffffffffffffffffff167fce241d7ca1f669fee44b6fc00b8eba2df3bb514eed0f6f668f8f89096e81ed9460405160405180910390a250565b6000600260109054906101000a900463ffffffff1663ffffffff164210151561047057fe5b600260009054906101000a90046fffffffffffffffffffffffffffffffff166fffffffffffffffffffffffffffffffff16600102905090565b600080600260009054906101000a90046fffffffffffffffffffffffffffffffff166fffffffffffffffffffffffffffffffff16600102600260109054906101000a900463ffffffff1663ffffffff164210915091509091565b60008060043591506024359050813373ffffffffffffffffffffffffffffffffffffffff166000357fffffffff00000000000000000000000000000000000000000000000000000000167bffffffffffffffffffffffffffffffffffffffffffffffffffffffff19167f644843f351d3fba4abcd60109eaff9f54bac8fb8ccf0bab941009c21df21cf31843460003660405180858152602001848152602001806020018281038252848482818152602001925080828437600081840152601f19601f8201169050808301925050509550505050505060405180910390a461060e336000357fffffffff0000000000000000000000000000000000000000000000000000000016610be4565b1515610682576040517f08c379a000000000000000000000000000000000000000000000000000000000815260040180806020018281038252601d8152602001807f4974206d75737420626520616e20617574686f72697a65642063616c6c00000081525060200191505060405180910390fd5b84600260006101000a8154816fffffffffffffffffffffffffffffffff02191690836fffffffffffffffffffffffffffffffff16021790555083600260106101000a81548163ffffffff021916908363ffffffff16021790555060008373ffffffffffffffffffffffffffffffffffffffff166040516024016040516020818303038152906040527f18178358000000000000000000000000000000000000000000000000000000007bffffffffffffffffffffffffffffffffffffffffffffffffffffffff19166020820180517bffffffffffffffffffffffffffffffffffffffffffffffffffffffff83818316178352505050506040518082805190602001908083835b6020831015156107ad5780518252602082019150602081019050602083039250610788565b6001836020036101000a0380198251168184511680821785525050505050509050019150506000604051808303816000865af19150503d806000811461080f576040519150601f19603f3d011682016040523d82523d6000602084013e610814565b606091505b5050905080151561088d576040517f08c379a00000000000000000000000000000000000000000000000000000000081526004018080602001828103825260158152602001807f54686520706f6b65206d7573742073756363656564000000000000000000000081525060200191505060405180910390fd5b505050505050565b6108c3336000357fffffffff0000000000000000000000000000000000000000000000000000000016610be4565b1515610937576040517f08c379a000000000000000000000000000000000000000000000000000000000815260040180806020018281038252601d8152602001807f4974206d75737420626520616e20617574686f72697a65642063616c6c00000081525060200191505060405180910390fd5b806000806101000a81548173ffffffffffffffffffffffffffffffffffffffff021916908373ffffffffffffffffffffffffffffffffffffffff1602179055506000809054906101000a900473ffffffffffffffffffffffffffffffffffffffff1673ffffffffffffffffffffffffffffffffffffffff167f1abebea81bfa2637f28358c371278fb15ede7ea8dd28d2e03b112ff6d936ada460405160405180910390a250565b600160009054906101000a900473ffffffffffffffffffffffffffffffffffffffff1681565b600260109054906101000a900463ffffffff1681565b60008060043591506024359050813373ffffffffffffffffffffffffffffffffffffffff166000357fffffffff00000000000000000000000000000000000000000000000000000000167bffffffffffffffffffffffffffffffffffffffffffffffffffffffff19167f644843f351d3fba4abcd60109eaff9f54bac8fb8ccf0bab941009c21df21cf31843460003660405180858152602001848152602001806020018281038252848482818152602001925080828437600081840152601f19601f8201169050808301925050509550505050505060405180910390a4610b25336000357fffffffff0000000000000000000000000000000000000000000000000000000016610be4565b1515610b99576040517f08c379a000000000000000000000000000000000000000000000000000000000815260040180806020018281038252601d8152602001807f4974206d75737420626520616e20617574686f72697a65642063616c6c00000081525060200191505060405180910390fd5b6000600260106101000a81548163ffffffff021916908363ffffffff1602179055505050565b6000809054906101000a900473ffffffffffffffffffffffffffffffffffffffff1681565b60003073ffffffffffffffffffffffffffffffffffffffff168373ffffffffffffffffffffffffffffffffffffffff161415610c235760019050610e53565b600160009054906101000a900473ffffffffffffffffffffffffffffffffffffffff1673ffffffffffffffffffffffffffffffffffffffff168373ffffffffffffffffffffffffffffffffffffffff161415610c825760019050610e53565b600073ffffffffffffffffffffffffffffffffffffffff166000809054906101000a900473ffffffffffffffffffffffffffffffffffffffff1673ffffffffffffffffffffffffffffffffffffffff161415610ce15760009050610e53565b6000809054906101000a900473ffffffffffffffffffffffffffffffffffffffff1673ffffffffffffffffffffffffffffffffffffffff1663b70096138430856040518463ffffffff167c0100000000000000000000000000000000000000000000000000000000028152600401808473ffffffffffffffffffffffffffffffffffffffff1673ffffffffffffffffffffffffffffffffffffffff1681526020018373ffffffffffffffffffffffffffffffffffffffff1673ffffffffffffffffffffffffffffffffffffffff168152602001827bffffffffffffffffffffffffffffffffffffffffffffffffffffffff19167bffffffffffffffffffffffffffffffffffffffffffffffffffffffff19168152602001935050505060206040518083038186803b158015610e1557600080fd5b505afa158015610e29573d6000803e3d6000fd5b505050506040513d6020811015610e3f57600080fd5b810190808051906020019092919050505090505b9291505056fea165627a7a72305820553b85382e391eeb6c97573386618df95f352f828d5de14d83459d7d0625162b0029",
  "source": "pragma solidity ^0.5.0;\n/// price-feed.sol\n\n// Copyright (C) 2017  DappHub, LLC\n\n// Licensed under the Apache License, Version 2.0 (the \"License\").\n// You may not use this file except in compliance with the License.\n\n// Unless required by applicable law or agreed to in writing, software\n// distributed under the License is distributed on an \"AS IS\" BASIS,\n// WITHOUT WARRANTIES OR CONDITIONS OF ANY KIND (express or implied).\n\nimport \"../Oracle/DSThing.sol\";\n\n\ncontract PriceFeed is DSThing {\n    uint128 val;\n    uint32 public zzz;\n\n    function peek() public view returns (bytes32, bool) {\n        return (bytes32(uint256(val)), block.timestamp < zzz);\n    }\n\n    function read() public view returns (bytes32) {\n        assert(block.timestamp < zzz);\n        return bytes32(uint256(val));\n    }\n\n    function post(uint128 val_, uint32 zzz_, address med_) public payable note auth {\n        val = val_;\n        zzz = zzz_;\n        (bool success, ) = med_.call(abi.encodeWithSignature(\"poke()\"));\n        require(success, \"The poke must succeed\");\n    }\n\n    function void() public payable note auth {\n        zzz = 0;\n    }\n\n}\n",
  "sourcePath": "/home/arct/projects/etherHedgeProject/contracts/Oracle/PriceFeed.sol",
  "compiler": {
    "name": "solc",
    "version": "0.5.0+commit.1d4f565a.Emscripten.clang"
  },
  "schemaVersion": "3.0.6",
  "updatedAt": "2019-05-18T21:05:50.935Z",
  "devdoc": {
    "methods": {}
  },
  "userdoc": {
    "methods": {}
  }
}