{
  "contractName": "Redeployer",
  "abi": [
    {
      "inputs": [],
      "payable": false,
      "stateMutability": "nonpayable",
      "type": "constructor"
    },
    {
      "constant": false,
      "inputs": [
        {
          "name": "_settingsAddress",
          "type": "address"
        },
        {
          "name": "_depositoryAddress",
          "type": "address"
        },
        {
          "name": "_decimal",
          "type": "uint256"
        },
        {
          "name": "_maxOrderValue",
          "type": "uint256"
        },
        {
          "name": "_minOrderValue",
          "type": "uint256"
        },
        {
          "name": "_percentMultiplyer",
          "type": "uint256"
        },
        {
          "name": "_bancrupcyDiff",
          "type": "uint256"
        },
        {
          "name": "_ticker",
          "type": "string"
        },
        {
          "name": "_number",
          "type": "uint256"
        }
      ],
      "name": "deploy",
      "outputs": [
        {
          "name": "",
          "type": "address"
        }
      ],
      "payable": false,
      "stateMutability": "nonpayable",
      "type": "function"
    }
  ],
  "bytecode": "0x608060405234801561001057600080fd5b506141f9806100206000396000f3fe608060405260043610610041576000357c0100000000000000000000000000000000000000000000000000000000900463ffffffff168063fa2e7c8f14610046575b600080fd5b34801561005257600080fd5b50610189600480360361012081101561006a57600080fd5b81019080803573ffffffffffffffffffffffffffffffffffffffff169060200190929190803573ffffffffffffffffffffffffffffffffffffffff1690602001909291908035906020019092919080359060200190929190803590602001909291908035906020019092919080359060200190929190803590602001906401000000008111156100f957600080fd5b82018360208201111561010b57600080fd5b8035906020019184600183028401116401000000008311171561012d57600080fd5b91908080601f016020809104026020016040519081016040528093929190818152602001838380828437600081840152601f19601f820116905080830192505050505050509192919290803590602001909291905050506101cb565b604051808273ffffffffffffffffffffffffffffffffffffffff1673ffffffffffffffffffffffffffffffffffffffff16815260200191505060405180910390f35b6000808a8a8a8a8a8a8a8a8a306101e0610342565b808b73ffffffffffffffffffffffffffffffffffffffff1673ffffffffffffffffffffffffffffffffffffffff1681526020018a73ffffffffffffffffffffffffffffffffffffffff1673ffffffffffffffffffffffffffffffffffffffff168152602001898152602001888152602001878152602001868152602001858152602001806020018481526020018373ffffffffffffffffffffffffffffffffffffffff1673ffffffffffffffffffffffffffffffffffffffff168152602001828103825285818151815260200191508051906020019080838360005b838110156102d75780820151818401526020810190506102bc565b50505050905090810190601f1680156103045780820380516001836020036101000a031916815260200191505b509b505050505050505050505050604051809103906000f08015801561032e573d6000803e3d6000fd5b509050809150509998505050505050505050565b604051613e7b806103538339019056fe60806040526064600f553480156200001657600080fd5b5060405162003e7b38038062003e7b83398101806040526101408110156200003d57600080fd5b810190808051906020019092919080519060200190929190805190602001909291908051906020019092919080519060200190929190805190602001909291908051906020019092919080516401000000008111156200009c57600080fd5b82810190506020810184811115620000b357600080fd5b8151856001820283011164010000000082111715620000d157600080fd5b50509291906020018051906020019092919080519060200190929190505050896000806101000a81548173ffffffffffffffffffffffffffffffffffffffff021916908373ffffffffffffffffffffffffffffffffffffffff16021790555088600160006101000a81548173ffffffffffffffffffffffffffffffffffffffff021916908373ffffffffffffffffffffffffffffffffffffffff16021790555087600c81905550620001a0600c54600a0a88620003206401000000000262001948179091906401000000009004565b6006819055508560078190555084600d8190555062000299600d546000809054906101000a900473ffffffffffffffffffffffffffffffffffffffff1673ffffffffffffffffffffffffffffffffffffffff16637ba7b4fe6040518163ffffffff167c010000000000000000000000000000000000000000000000000000000002815260040160206040518083038186803b1580156200023f57600080fd5b505afa15801562000254573d6000803e3d6000fd5b505050506040513d60208110156200026b57600080fd5b8101908080519060200190929190505050620003206401000000000262001948179091906401000000009004565b600581905550600d54600e8190555083600981905550816004819055508260039080519060200190620002ce92919062000362565b5080600260006101000a81548173ffffffffffffffffffffffffffffffffffffffff021916908373ffffffffffffffffffffffffffffffffffffffff1602179055505050505050505050505062000411565b6000808314156200033557600090506200035c565b600082840290508284828115156200034957fe5b041415156200035757600080fd5b809150505b92915050565b828054600181600116156101000203166002900490600052602060002090601f016020900481019282601f10620003a557805160ff1916838001178555620003d6565b82800160010185558215620003d6579182015b82811115620003d5578251825591602001919060010190620003b8565b5b509050620003e59190620003e9565b5090565b6200040e91905b808211156200040a576000816000905550600101620003f0565b5090565b90565b613a5a80620004216000396000f3fe60806040526004361061011d576000357c0100000000000000000000000000000000000000000000000000000000900463ffffffff168063053f14da14610122578063084d2b271461014d5780630c03e701146101bd5780630ce4abf8146101e85780631cfc18621461021357806336f49f561461027f5780634665096d146103585780634b6131761461036f57806355f57510146103e25780635c0b54a11461045c57806368d9c9de146104d357806370e2184b146105365780637498a0f0146105615780638381f58a146105b25780638ba47bdd146105dd5780639c3f1e901461066d5780639e2c8ff11461070b578063a1e3cee714610736578063ae3302c21461074d578063cb44977714610778578063f7213db6146107cf575b600080fd5b34801561012e57600080fd5b5061013761081e565b6040518082815260200191505060405180910390f35b34801561015957600080fd5b5061019c6004803603602081101561017057600080fd5b81019080803573ffffffffffffffffffffffffffffffffffffffff169060200190929190505050610824565b60405180838152602001821515151581526020019250505060405180910390f35b3480156101c957600080fd5b506101d26108c8565b6040518082815260200191505060405180910390f35b3480156101f457600080fd5b506101fd6108ce565b6040518082815260200191505060405180910390f35b34801561021f57600080fd5b506102626004803603602081101561023657600080fd5b81019080803573ffffffffffffffffffffffffffffffffffffffff1690602001909291905050506108d4565b604051808381526020018281526020019250505060405180910390f35b34801561028b57600080fd5b50610356600480360360608110156102a257600080fd5b81019080803590602001906401000000008111156102bf57600080fd5b8201836020820111156102d157600080fd5b803590602001918460208302840111640100000000831117156102f357600080fd5b919080806020026020016040519081016040528093929190818152602001838360200280828437600081840152601f19601f8201169050808301925050505050505091929192908035906020019092919080359060200190929190505050610b11565b005b34801561036457600080fd5b5061036d610c54565b005b34801561037b57600080fd5b506103c86004803603604081101561039257600080fd5b81019080803573ffffffffffffffffffffffffffffffffffffffff16906020019092919080359060200190929190505050610e89565b604051808215151515815260200191505060405180910390f35b3480156103ee57600080fd5b506104316004803603602081101561040557600080fd5b81019080803573ffffffffffffffffffffffffffffffffffffffff169060200190929190505050610f5c565b6040518085815260200184815260200183815260200182815260200194505050505060405180910390f35b34801561046857600080fd5b506104bd600480360360a081101561047f57600080fd5b810190808035906020019092919080359060200190929190803590602001909291908035906020019092919080359060200190929190505050610f8c565b6040518082815260200191505060405180910390f35b3480156104df57600080fd5b50610520600480360360608110156104f657600080fd5b81019080803590602001909291908035906020019092919080359060200190929190505050611254565b6040518082815260200191505060405180910390f35b34801561054257600080fd5b5061054b6112af565b6040518082815260200191505060405180910390f35b34801561056d57600080fd5b506105b06004803603602081101561058457600080fd5b81019080803573ffffffffffffffffffffffffffffffffffffffff1690602001909291905050506112b5565b005b3480156105be57600080fd5b506105c761169a565b6040518082815260200191505060405180910390f35b3480156105e957600080fd5b506105f26116a0565b6040518080602001828103825283818151815260200191508051906020019080838360005b83811015610632578082015181840152602081019050610617565b50505050905090810190601f16801561065f5780820380516001836020036101000a031916815260200191505b509250505060405180910390f35b34801561067957600080fd5b506106a66004803603602081101561069057600080fd5b810190808035906020019092919050505061173e565b604051808781526020018681526020018581526020018481526020018381526020018273ffffffffffffffffffffffffffffffffffffffff1673ffffffffffffffffffffffffffffffffffffffff168152602001965050505050505060405180910390f35b34801561071757600080fd5b5061072061179a565b6040518082815260200191505060405180910390f35b34801561074257600080fd5b5061074b6117a0565b005b34801561075957600080fd5b506107626117be565b6040518082815260200191505060405180910390f35b34801561078457600080fd5b5061078d6117c4565b604051808273ffffffffffffffffffffffffffffffffffffffff1673ffffffffffffffffffffffffffffffffffffffff16815260200191505060405180910390f35b3480156107db57600080fd5b50610808600480360360208110156107f257600080fd5b81019080803590602001909291905050506117ea565b6040518082815260200191505060405180910390f35b600a5481565b60008061082f613970565b601160008573ffffffffffffffffffffffffffffffffffffffff1673ffffffffffffffffffffffffffffffffffffffff1681526020019081526020016000206080604051908101604052908160008201548152602001600182015481526020016002820154815260200160038201548152505090506108be8160200151600a5483600001518460600151611802565b9250925050915091565b60095481565b60065481565b6000806108df613970565b601160008573ffffffffffffffffffffffffffffffffffffffff1673ffffffffffffffffffffffffffffffffffffffff168152602001908152602001600020608060405190810160405290816000820154815260200160018201548152602001600282015481526020016003820154815250509050600081606001511415610a255760006109a861097f600d54846040015161192690919063ffffffff16565b61099a8460400151856020015161194890919063ffffffff16565b61198690919063ffffffff16565b90506000610a158360200151610a07600f546109f96109d488602001518861192690919063ffffffff16565b6109eb600954600f5461192690919063ffffffff16565b61194890919063ffffffff16565b61198690919063ffffffff16565b6119b090919063ffffffff16565b9050818194509450505050610b0c565b6000610a93610a80600f54610a728560400151610a64600d54610a5660328a6020015161194890919063ffffffff16565b61194890919063ffffffff16565b61198690919063ffffffff16565b61198690919063ffffffff16565b836020015161192690919063ffffffff16565b90506000610b00610aed600f54610adf610aba86886020015161192690919063ffffffff16565b610ad1600954600f5461192690919063ffffffff16565b61194890919063ffffffff16565b61198690919063ffffffff16565b846020015161192690919063ffffffff16565b90508181945094505050505b915091565b6000809054906101000a900473ffffffffffffffffffffffffffffffffffffffff1673ffffffffffffffffffffffffffffffffffffffff16633a63cfc46040518163ffffffff167c010000000000000000000000000000000000000000000000000000000002815260040160206040518083038186803b158015610b9457600080fd5b505afa158015610ba8573d6000803e3d6000fd5b505050506040513d6020811015610bbe57600080fd5b8101908080519060200190929190505050835111151515610bde57600080fd5b60008090505b8351811015610c4e576000610c118583815181101515610c0057fe5b9060200190602002015185856119d1565b90506000811115610c405783811415610c2a5750610c4e565b610c3d818561192690919063ffffffff16565b93505b508080600101915050610be4565b50505050565b6000600854111515610c6557600080fd5b6000809054906101000a900473ffffffffffffffffffffffffffffffffffffffff1673ffffffffffffffffffffffffffffffffffffffff1663e793a38d6040518163ffffffff167c010000000000000000000000000000000000000000000000000000000002815260040160206040518083038186803b158015610ce857600080fd5b505afa158015610cfc573d6000803e3d6000fd5b505050506040513d6020811015610d1257600080fd5b810190808051906020019092919050505015610d7257601160003373ffffffffffffffffffffffffffffffffffffffff1673ffffffffffffffffffffffffffffffffffffffff168152602001908152602001600020600101546008819055505b610d7e336008546125b3565b7f0daade19c048d255aec8915c02b16856f2ac3b4d767995da0c75b256ac5155b9601160003373ffffffffffffffffffffffffffffffffffffffff1673ffffffffffffffffffffffffffffffffffffffff16815260200190815260200160002060000154600854601160003373ffffffffffffffffffffffffffffffffffffffff1673ffffffffffffffffffffffffffffffffffffffff168152602001908152602001600020600301543342604051808681526020018581526020018481526020018373ffffffffffffffffffffffffffffffffffffffff1673ffffffffffffffffffffffffffffffffffffffff1681526020018281526020019550505050505060405180910390a1565b6000610e93613970565b601160008573ffffffffffffffffffffffffffffffffffffffff1673ffffffffffffffffffffffffffffffffffffffff1681526020019081526020016000206080604051908101604052908160008201548152602001600182015481526020016002820154815260200160038201548152505090506000610f13856108d4565b915050600082606001511415610f3b5780841115610f3657600192505050610f56565b610f4f565b80841015610f4e57600192505050610f56565b5b6000925050505b92915050565b60116020528060005260406000206000915090508060000154908060010154908060020154908060030154905084565b6000610f9a868686866127aa565b6000600233888842604051602001808573ffffffffffffffffffffffffffffffffffffffff1673ffffffffffffffffffffffffffffffffffffffff166c010000000000000000000000000281526014018481526020018381526020018281526020019450505050506040516020818303038152906040526040518082805190602001908083835b6020831015156110465780518252602082019150602081019050602083039250611021565b6001836020036101000a038019825116818451168082178552505050505050905001915050602060405180830381855afa158015611088573d6000803e3d6000fd5b5050506040513d602081101561109d57600080fd5b81019080805190602001909291905050509050336010600083815260200190815260200160002060050160006101000a81548173ffffffffffffffffffffffffffffffffffffffff021916908373ffffffffffffffffffffffffffffffffffffffff16021790555086601060008381526020019081526020016000206001018190555085601060008381526020019081526020016000206000018190555083601060008381526020019081526020016000206004018190555084601060008381526020019081526020016000206002018190555061118483436119b090919063ffffffff16565b60106000838152602001908152602001600020600301819055507fcd5053f3bf22771caa58542afb3d01a18eec0efc39f4631a5cbe610eb31cb65f3388888885896010600089815260200190815260200160002060030154604051808873ffffffffffffffffffffffffffffffffffffffff1673ffffffffffffffffffffffffffffffffffffffff16815260200187815260200186815260200185815260200184815260200183815260200182815260200197505050505050505060405180910390a18091505095945050505050565b60006112a6826112988661128a600c54600a0a61127c600d548a61194890919063ffffffff16565b61194890919063ffffffff16565b61198690919063ffffffff16565b61198690919063ffffffff16565b90509392505050565b60085481565b6000809054906101000a900473ffffffffffffffffffffffffffffffffffffffff1673ffffffffffffffffffffffffffffffffffffffff1663e793a38d6040518163ffffffff167c010000000000000000000000000000000000000000000000000000000002815260040160206040518083038186803b15801561133857600080fd5b505afa15801561134c573d6000803e3d6000fd5b505050506040513d602081101561136257600080fd5b810190808051906020019092919050505015151561137f57600080fd5b60008061138b836108d4565b91509150600061145984600160009054906101000a900473ffffffffffffffffffffffffffffffffffffffff1673ffffffffffffffffffffffffffffffffffffffff1663a3ca17b26040518163ffffffff167c010000000000000000000000000000000000000000000000000000000002815260040160206040518083038186803b15801561141957600080fd5b505afa15801561142d573d6000803e3d6000fd5b505050506040513d602081101561144357600080fd5b8101908080519060200190929190505050610e89565b905080151561146757600080fd5b61146f613970565b601160008673ffffffffffffffffffffffffffffffffffffffff1673ffffffffffffffffffffffffffffffffffffffff1681526020019081526020016000206080604051908101604052908160008201548152602001600182015481526020016002820154815260200160038201548152505090506000806114ff83602001518685600001518660600151611802565b9150915060008061151e85602001518987600001518860600151611802565b915091508215801561152e575080155b151561153957600080fd5b600061154e858461192690919063ffffffff16565b905061155a8a896125b3565b600160009054906101000a900473ffffffffffffffffffffffffffffffffffffffff1673ffffffffffffffffffffffffffffffffffffffff166381f35bc6826040518263ffffffff167c010000000000000000000000000000000000000000000000000000000002815260040180828152602001915050600060405180830381600087803b1580156115eb57600080fd5b505af11580156115ff573d6000803e3d6000fd5b505050507fcb59cb0b7efdcae9ad008652919e57372c9635a24e7a90dd5f2cce4bf9d0343686600001518988606001518d42604051808681526020018581526020018481526020018373ffffffffffffffffffffffffffffffffffffffff1673ffffffffffffffffffffffffffffffffffffffff1681526020018281526020019550505050505060405180910390a150505050505050505050565b60045481565b60038054600181600116156101000203166002900480601f0160208091040260200160405190810160405280929190818152602001828054600181600116156101000203166002900480156117365780601f1061170b57610100808354040283529160200191611736565b820191906000526020600020905b81548152906001019060200180831161171957829003601f168201915b505050505081565b60106020528060005260406000206000915090508060000154908060010154908060020154908060030154908060040154908060050160009054906101000a900473ffffffffffffffffffffffffffffffffffffffff16905086565b60075481565b642098a678006008819055506117b46128f3565b6117bc610c54565b565b60055481565b600b60009054906101000a900473ffffffffffffffffffffffffffffffffffffffff1681565b60126020528060005260406000206000915090505481565b600080600183141561188b5784861115156118515761184661184061182c600c54600a0a89611986565b61183b600c54600a0a89611986565b611926565b85611948565b60019150915061191d565b61188061187a611866600c54600a0a88611986565b611875600c54600a0a8a611986565b611926565b85611948565b60009150915061191d565b60008314156119115784861015156118d7576118cc6118c66118b2600c54600a0a88611986565b6118c1600c54600a0a8a611986565b611926565b85611948565b60019150915061191d565b6119066119006118ec600c54600a0a89611986565b6118fb600c54600a0a89611986565b611926565b85611948565b60009150915061191d565b60006001819150915091505b94509492505050565b600082821115151561193757600080fd5b600082840390508091505092915050565b60008083141561195b5760009050611980565b6000828402905082848281151561196e57fe5b0414151561197b57600080fd5b809150505b92915050565b6000808211151561199657600080fd5b600082848115156119a357fe5b0490508091505092915050565b60008082840190508381101515156119c757600080fd5b8091505092915050565b60006119db613999565b838160200181815250508281604001818152505084816000018181525050611a016139be565b601060008360000151815260200190815260200160002060c0604051908101604052908160008201548152602001600182015481526020016002820154815260200160038201548152602001600482015481526020016005820160009054906101000a900473ffffffffffffffffffffffffffffffffffffffff1673ffffffffffffffffffffffffffffffffffffffff1673ffffffffffffffffffffffffffffffffffffffff1681525050905060008160000151118015611adc57508060000151601260008460000151815260200190815260200160002054105b8015611aec575043816060015110155b156125a5578060000151611b2483602001516012600086600001518152602001908152602001600020546119b090919063ffffffff16565b1115611b6257611b58601260008460000151815260200190815260200160002054826000015161192690919063ffffffff16565b8260200181815250505b611b7e81602001518360200151836040015185604001516127aa565b8060a0015173ffffffffffffffffffffffffffffffffffffffff163373ffffffffffffffffffffffffffffffffffffffff161415156125a457600033905060008260a00151905060008360800151905060008560400151905060008060009054906101000a900473ffffffffffffffffffffffffffffffffffffffff1673ffffffffffffffffffffffffffffffffffffffff166356ecb2676040518163ffffffff167c010000000000000000000000000000000000000000000000000000000002815260040160206040518083038186803b158015611c5c57600080fd5b505afa158015611c70573d6000803e3d6000fd5b505050506040513d6020811015611c8657600080fd5b8101908080519060200190929190505050905060008060009054906101000a900473ffffffffffffffffffffffffffffffffffffffff1673ffffffffffffffffffffffffffffffffffffffff1663194097fc6040518163ffffffff167c010000000000000000000000000000000000000000000000000000000002815260040160206040518083038186803b158015611d1e57600080fd5b505afa158015611d32573d6000803e3d6000fd5b505050506040513d6020811015611d4857600080fd5b81019080805190602001909291905050509050600187604001511415611f01573394508660a00151955087604001519350866080015192506000809054906101000a900473ffffffffffffffffffffffffffffffffffffffff1673ffffffffffffffffffffffffffffffffffffffff1663194097fc6040518163ffffffff167c010000000000000000000000000000000000000000000000000000000002815260040160206040518083038186803b158015611e0357600080fd5b505afa158015611e17573d6000803e3d6000fd5b505050506040513d6020811015611e2d57600080fd5b810190808051906020019092919050505091506000809054906101000a900473ffffffffffffffffffffffffffffffffffffffff1673ffffffffffffffffffffffffffffffffffffffff166356ecb2676040518163ffffffff167c010000000000000000000000000000000000000000000000000000000002815260040160206040518083038186803b158015611ec357600080fd5b505afa158015611ed7573d6000803e3d6000fd5b505050506040513d6020811015611eed57600080fd5b810190808051906020019092919050505090505b6000600160009054906101000a900473ffffffffffffffffffffffffffffffffffffffff1673ffffffffffffffffffffffffffffffffffffffff1663f8b2cb4f876040518263ffffffff167c0100000000000000000000000000000000000000000000000000000000028152600401808273ffffffffffffffffffffffffffffffffffffffff1673ffffffffffffffffffffffffffffffffffffffff16815260200191505060206040518083038186803b158015611fbe57600080fd5b505afa158015611fd2573d6000803e3d6000fd5b505050506040513d6020811015611fe857600080fd5b810190808051906020019092919050505090506000600160009054906101000a900473ffffffffffffffffffffffffffffffffffffffff1673ffffffffffffffffffffffffffffffffffffffff1663f8b2cb4f896040518263ffffffff167c0100000000000000000000000000000000000000000000000000000000028152600401808273ffffffffffffffffffffffffffffffffffffffff1673ffffffffffffffffffffffffffffffffffffffff16815260200191505060206040518083038186803b1580156120b857600080fd5b505afa1580156120cc573d6000803e3d6000fd5b505050506040513d60208110156120e257600080fd5b810190808051906020019092919050505090506120fd613a0b565b612113888b602001518d6020015160008b612c6f565b905061211d613a0b565b6121338a8c602001518e6020015160018b612c6f565b905081600060068110151561214457fe5b602002015181600060068110151561215857fe5b6020020151101561218b57612188898c6020015183600060068110151561217b57fe5b602002015160008c612c6f565b91505b81600060068110151561219a57fe5b60200201518160006006811015156121ae57fe5b602002015111156121e1576121de8a8c602001518460006006811015156121d157fe5b602002015160018b612c6f565b90505b600160009054906101000a900473ffffffffffffffffffffffffffffffffffffffff1673ffffffffffffffffffffffffffffffffffffffff1663f8b2cb4f8a6040518263ffffffff167c0100000000000000000000000000000000000000000000000000000000028152600401808273ffffffffffffffffffffffffffffffffffffffff1673ffffffffffffffffffffffffffffffffffffffff16815260200191505060206040518083038186803b15801561229c57600080fd5b505afa1580156122b0573d6000803e3d6000fd5b505050506040513d60208110156122c657600080fd5b8101908080519060200190929190505050841480156123d95750600160009054906101000a900473ffffffffffffffffffffffffffffffffffffffff1673ffffffffffffffffffffffffffffffffffffffff1663f8b2cb4f8b6040518263ffffffff167c0100000000000000000000000000000000000000000000000000000000028152600401808273ffffffffffffffffffffffffffffffffffffffff1673ffffffffffffffffffffffffffffffffffffffff16815260200191505060206040518083038186803b15801561239b57600080fd5b505afa1580156123af573d6000803e3d6000fd5b505050506040513d60208110156123c557600080fd5b810190808051906020019092919050505083145b1561258f5760008260016006811015156123ef57fe5b602002015111156125685761240a8983888e6020015161315e565b61241a8a82878e6020015161315e565b61245782600060068110151561242c57fe5b6020020151601260008f600001518152602001908152602001600020546119b090919063ffffffff16565b601260008e600001518152602001908152602001600020819055508a60200151600a819055507fac958855789d1f52c520ffd0035fd63793f46bda4ad55277f9eafedd29cf3fe68c600001518360006006811015156124b257fe5b60200201518d602001516124c98f6040015161368f565b8f60a001513342604051808881526020018781526020018681526020018581526020018473ffffffffffffffffffffffffffffffffffffffff1673ffffffffffffffffffffffffffffffffffffffff1681526020018373ffffffffffffffffffffffffffffffffffffffff1673ffffffffffffffffffffffffffffffffffffffff16815260200182815260200197505050505050505060405180910390a15b81600060068110151561257757fe5b60200201519c505050505050505050505050506125ac565b60009c505050505050505050505050506125ac565b5b6000925050505b9392505050565b6000601160008473ffffffffffffffffffffffffffffffffffffffff1673ffffffffffffffffffffffffffffffffffffffff1681526020019081526020016000206000015411151561260457600080fd5b60006126538383601160008773ffffffffffffffffffffffffffffffffffffffff1673ffffffffffffffffffffffffffffffffffffffff168152602001908152602001600020600001546136bd565b9050601160008473ffffffffffffffffffffffffffffffffffffffff1673ffffffffffffffffffffffffffffffffffffffff1681526020019081526020016000206000808201600090556001820160009055600282016000905560038201600090555050600160009054906101000a900473ffffffffffffffffffffffffffffffffffffffff1673ffffffffffffffffffffffffffffffffffffffff1663a8df674384838460006040518563ffffffff167c0100000000000000000000000000000000000000000000000000000000028152600401808573ffffffffffffffffffffffffffffffffffffffff1673ffffffffffffffffffffffffffffffffffffffff168152602001848152602001838152602001828152602001945050505050600060405180830381600087803b15801561278d57600080fd5b505af11580156127a1573d6000803e3d6000fd5b50505050505050565b600e548110156127ba57600e5490505b6000841180156127ca5750600083115b80156127e1575060008214806127e05750600182145b5b80156127ef57508060055410155b80156127fd575080600d5411155b801561280b57506000600854145b8015612842575061283c8461282e600c54600a0a8661194890919063ffffffff16565b61198690919063ffffffff16565b60065410155b8015612879575061287384612865600c54600a0a8661194890919063ffffffff16565b61198690919063ffffffff16565b60075411155b15156128ed576040517f08c379a00000000000000000000000000000000000000000000000000000000081526004018080602001828103825260108152602001807f4e6f742056616c696420506172616d730000000000000000000000000000000081525060200191505060405180910390fd5b50505050565b600260009054906101000a900473ffffffffffffffffffffffffffffffffffffffff1673ffffffffffffffffffffffffffffffffffffffff1663fa2e7c8f6000809054906101000a900473ffffffffffffffffffffffffffffffffffffffff16600160009054906101000a900473ffffffffffffffffffffffffffffffffffffffff16600c54600654600754600d5460095460036001600454016040518a63ffffffff167c0100000000000000000000000000000000000000000000000000000000028152600401808a73ffffffffffffffffffffffffffffffffffffffff1673ffffffffffffffffffffffffffffffffffffffff1681526020018973ffffffffffffffffffffffffffffffffffffffff1673ffffffffffffffffffffffffffffffffffffffff16815260200188815260200187815260200186815260200185815260200184815260200180602001838152602001828103825284818154600181600116156101000203166002900481526020019150805460018160011615610100020316600290048015612ac95780601f10612a9e57610100808354040283529160200191612ac9565b820191906000526020600020905b815481529060010190602001808311612aac57829003601f168201915b50509a5050505050505050505050602060405180830381600087803b158015612af157600080fd5b505af1158015612b05573d6000803e3d6000fd5b505050506040513d6020811015612b1b57600080fd5b8101908080519060200190929190505050600b60006101000a81548173ffffffffffffffffffffffffffffffffffffffff021916908373ffffffffffffffffffffffffffffffffffffffff1602179055506000809054906101000a900473ffffffffffffffffffffffffffffffffffffffff1673ffffffffffffffffffffffffffffffffffffffff1663b5522e89600b60009054906101000a900473ffffffffffffffffffffffffffffffffffffffff1662784ce06040518363ffffffff167c0100000000000000000000000000000000000000000000000000000000028152600401808373ffffffffffffffffffffffffffffffffffffffff1673ffffffffffffffffffffffffffffffffffffffff16815260200182815260200192505050600060405180830381600087803b158015612c5557600080fd5b505af1158015612c69573d6000803e3d6000fd5b50505050565b612c77613a0b565b612c7f613970565b85816020018181525050848160000181815250508281604001818152505083816060018181525050600087905060008690506000879050600089905060008790506000600160009054906101000a900473ffffffffffffffffffffffffffffffffffffffff1673ffffffffffffffffffffffffffffffffffffffff1663f8b2cb4f876040518263ffffffff167c0100000000000000000000000000000000000000000000000000000000028152600401808273ffffffffffffffffffffffffffffffffffffffff1673ffffffffffffffffffffffffffffffffffffffff16815260200191505060206040518083038186803b158015612d7d57600080fd5b505afa158015612d91573d6000803e3d6000fd5b505050506040513d6020811015612da757600080fd5b810190808051906020019092919050505090506000600160009054906101000a900473ffffffffffffffffffffffffffffffffffffffff1673ffffffffffffffffffffffffffffffffffffffff16636c24a76f886040518263ffffffff167c0100000000000000000000000000000000000000000000000000000000028152600401808273ffffffffffffffffffffffffffffffffffffffff1673ffffffffffffffffffffffffffffffffffffffff16815260200191505060206040518083038186803b158015612e7757600080fd5b505afa158015612e8b573d6000803e3d6000fd5b505050506040513d6020811015612ea157600080fd5b810190808051906020019092919050505090506000612ecd89602001518a600001518b60400151611254565b9050612ed7613970565b601160008a73ffffffffffffffffffffffffffffffffffffffff1673ffffffffffffffffffffffffffffffffffffffff16815260200190815260200160002060806040519081016040529081600082015481526020016001820154815260200160028201548152602001600382015481525050905060008160000151118015612f67575089606001518160600151145b15612fbe5781831015612f8a57612f87838b602001518c604001516138b0565b97505b612fa2816020015182600001518c602001518b61390a565b9550612fbb8882600001516119b090919063ffffffff16565b96505b60008160000151118015612fda57508960600151816060015114155b8015612fed575080600001518a60000151115b1561307457613005898b6020015183600001516136bd565b935061302281600001518b6000015161192690919063ffffffff16565b965060006130398b60200151898d60400151611254565b90508085101561307257613056858c602001518d604001516138b0565b975061306f888c6000015161192690919063ffffffff16565b98505b505b6000816000015111801561309057508960600151816060015114155b80156130a4575080600001518a6000015111155b156130ea576130bc898b602001518c600001516136bd565b935080606001519c50806020015195506130e78a60000151826000015161192690919063ffffffff16565b96505b600081600001511480156130fd57508183105b1561311b57613115838b602001518c604001516138b0565b97508796505b60c0604051908101604052808981526020018881526020018781526020018e8152602001868152602001858152509a505050505050505050505095945050505050565b60008060009054906101000a900473ffffffffffffffffffffffffffffffffffffffff1673ffffffffffffffffffffffffffffffffffffffff1663e5919a4f306040518263ffffffff167c0100000000000000000000000000000000000000000000000000000000028152600401808273ffffffffffffffffffffffffffffffffffffffff1673ffffffffffffffffffffffffffffffffffffffff168152602001915050604080518083038186803b15801561321957600080fd5b505afa15801561322d573d6000803e3d6000fd5b505050506040513d604081101561324357600080fd5b8101908080519060200190929190805190602001909291905050509150504281101561333b57600160009054906101000a900473ffffffffffffffffffffffffffffffffffffffff1673ffffffffffffffffffffffffffffffffffffffff1663a3ca17b26040518163ffffffff167c010000000000000000000000000000000000000000000000000000000002815260040160206040518083038186803b1580156132ed57600080fd5b505afa158015613301573d6000803e3d6000fd5b505050506040513d602081101561331757600080fd5b81019080805190602001909291905050506008819055506133366128f3565b613688565b6000809054906101000a900473ffffffffffffffffffffffffffffffffffffffff1673ffffffffffffffffffffffffffffffffffffffff1663e793a38d6040518163ffffffff167c010000000000000000000000000000000000000000000000000000000002815260040160206040518083038186803b1580156133be57600080fd5b505afa1580156133d2573d6000803e3d6000fd5b505050506040513d60208110156133e857600080fd5b810190808051906020019092919050505015151561340557600080fd5b61340d613970565b84600160068110151561341c57fe5b602002015181600001818152505084600260068110151561343957fe5b602002015181602001818152505084600360068110151561345657fe5b602002015181606001818152505084600460068110151561347357fe5b6020020151816040018181525050600085600560068110151561349257fe5b6020020151905060006134c46134b5846020015185600001518660400151611254565b8361192690919063ffffffff16565b905060006134ea868960006006811015156134db57fe5b60200201518660400151611254565b905060006135286135076064600d5461194890919063ffffffff16565b61351a8a8561194890919063ffffffff16565b61198690919063ffffffff16565b905084601160008c73ffffffffffffffffffffffffffffffffffffffff1673ffffffffffffffffffffffffffffffffffffffff16815260200190815260200160002060008201518160000155602082015181600101556040820151816002015560608201518160030155905050600160009054906101000a900473ffffffffffffffffffffffffffffffffffffffff1673ffffffffffffffffffffffffffffffffffffffff1663a8df67438b8686856040518563ffffffff167c0100000000000000000000000000000000000000000000000000000000028152600401808573ffffffffffffffffffffffffffffffffffffffff1673ffffffffffffffffffffffffffffffffffffffff168152602001848152602001838152602001828152602001945050505050600060405180830381600087803b15801561366a57600080fd5b505af115801561367e573d6000803e3d6000fd5b5050505050505050505b5050505050565b6000808214156136a257600190506136b8565b60018214156136b457600090506136b8565b8190505b919050565b600080600160009054906101000a900473ffffffffffffffffffffffffffffffffffffffff1673ffffffffffffffffffffffffffffffffffffffff1663f8b2cb4f866040518263ffffffff167c0100000000000000000000000000000000000000000000000000000000028152600401808273ffffffffffffffffffffffffffffffffffffffff1673ffffffffffffffffffffffffffffffffffffffff16815260200191505060206040518083038186803b15801561377b57600080fd5b505afa15801561378f573d6000803e3d6000fd5b505050506040513d60208110156137a557600080fd5b810190808051906020019092919050505090506137c0613970565b601160008773ffffffffffffffffffffffffffffffffffffffff1673ffffffffffffffffffffffffffffffffffffffff16815260200190815260200160002060806040519081016040529081600082015481526020016001820154815260200160028201548152602001600382015481525050905060008160000151141561384c5781925050506138a9565b600080613863836020015188888660600151611802565b9150915080156138825761387784836119b0565b9450505050506138a9565b83821015156138985760009450505050506138a9565b6138a28483611926565b9450505050505b9392505050565b6000613901600c54600a0a6138f360646138e5866138d7898b61194890919063ffffffff16565b61194890919063ffffffff16565b61198690919063ffffffff16565b61198690919063ffffffff16565b90509392505050565b60008061391e600c54600a0a860287611986565b90506000613933600c54600a0a850286611986565b9050600061394187866119b0565b9050600061394f83856119b0565b9050613962600c54600a0a830282611986565b945050505050949350505050565b608060405190810160405280600081526020016000815260200160008152602001600081525090565b6060604051908101604052806000801916815260200160008152602001600081525090565b60c0604051908101604052806000815260200160008152602001600081526020016000815260200160008152602001600073ffffffffffffffffffffffffffffffffffffffff1681525090565b60c06040519081016040528060069060208202803883398082019150509050509056fea165627a7a723058207e1cfe87bb232eeabf2dd410fe900ca4b09091cec275489d82052bd6b843bd280029a165627a7a72305820eaf955fafe561e7d31b6a5a8545df905a89a1927cff11f4f23039c036ef89fec0029",
  "source": "pragma solidity ^0.5.0;\n\nimport \"./FutureContract.sol\";\n\ncontract Redeployer {\n    constructor () public {}\n    function deploy(        \n        address _settingsAddress, \n        address _depositoryAddress, \n        uint256 _decimal,\n        uint256 _maxOrderValue,\n        uint256 _minOrderValue,\n        uint256 _percentMultiplyer,\n        uint256 _bancrupcyDiff,\n        string memory _ticker,\n        uint256 _number\n        ) public returns (address){\n        FutureContract futureContract = new FutureContract(_settingsAddress, _depositoryAddress, _decimal, _maxOrderValue, _minOrderValue, _percentMultiplyer, _bancrupcyDiff, _ticker, _number, address(this));\n\n        return address(futureContract);\n    }\n}\n",
  "sourcePath": "/home/arct/projects/etherHedgeProject/contracts/Redeployer.sol",
  "compiler": {
    "name": "solc",
    "version": "0.5.0+commit.1d4f565a.Emscripten.clang"
  },
  "schemaVersion": "3.0.6",
  "updatedAt": "2019-05-26T00:13:56.638Z",
  "devdoc": {
    "methods": {}
  },
  "userdoc": {
    "methods": {}
  }
}