{
  "contractName": "Sale",
  "abi": [
    {
      "constant": true,
      "inputs": [],
      "name": "hasClosed",
      "outputs": [
        {
          "name": "",
          "type": "bool"
        }
      ],
      "payable": false,
      "stateMutability": "view",
      "type": "function"
    },
    {
      "constant": true,
      "inputs": [],
      "name": "finalRate",
      "outputs": [
        {
          "name": "",
          "type": "uint256"
        }
      ],
      "payable": false,
      "stateMutability": "view",
      "type": "function"
    },
    {
      "constant": true,
      "inputs": [],
      "name": "rate",
      "outputs": [
        {
          "name": "",
          "type": "uint256"
        }
      ],
      "payable": false,
      "stateMutability": "view",
      "type": "function"
    },
    {
      "constant": true,
      "inputs": [],
      "name": "weiRaised",
      "outputs": [
        {
          "name": "",
          "type": "uint256"
        }
      ],
      "payable": false,
      "stateMutability": "view",
      "type": "function"
    },
    {
      "constant": true,
      "inputs": [],
      "name": "isOpen",
      "outputs": [
        {
          "name": "",
          "type": "bool"
        }
      ],
      "payable": false,
      "stateMutability": "view",
      "type": "function"
    },
    {
      "constant": true,
      "inputs": [],
      "name": "closingTime",
      "outputs": [
        {
          "name": "",
          "type": "uint256"
        }
      ],
      "payable": false,
      "stateMutability": "view",
      "type": "function"
    },
    {
      "constant": true,
      "inputs": [],
      "name": "wallet",
      "outputs": [
        {
          "name": "",
          "type": "address"
        }
      ],
      "payable": false,
      "stateMutability": "view",
      "type": "function"
    },
    {
      "constant": true,
      "inputs": [],
      "name": "initialRate",
      "outputs": [
        {
          "name": "",
          "type": "uint256"
        }
      ],
      "payable": false,
      "stateMutability": "view",
      "type": "function"
    },
    {
      "constant": true,
      "inputs": [],
      "name": "openingTime",
      "outputs": [
        {
          "name": "",
          "type": "uint256"
        }
      ],
      "payable": false,
      "stateMutability": "view",
      "type": "function"
    },
    {
      "constant": false,
      "inputs": [
        {
          "name": "beneficiary",
          "type": "address"
        }
      ],
      "name": "buyTokens",
      "outputs": [],
      "payable": true,
      "stateMutability": "payable",
      "type": "function"
    },
    {
      "constant": true,
      "inputs": [],
      "name": "getCurrentRate",
      "outputs": [
        {
          "name": "",
          "type": "uint256"
        }
      ],
      "payable": false,
      "stateMutability": "view",
      "type": "function"
    },
    {
      "constant": true,
      "inputs": [],
      "name": "token",
      "outputs": [
        {
          "name": "",
          "type": "address"
        }
      ],
      "payable": false,
      "stateMutability": "view",
      "type": "function"
    },
    {
      "inputs": [
        {
          "name": "_rate",
          "type": "uint256"
        },
        {
          "name": "_wallet",
          "type": "address"
        },
        {
          "name": "_token",
          "type": "address"
        },
        {
          "name": "_openingTime",
          "type": "uint256"
        },
        {
          "name": "_closingTime",
          "type": "uint256"
        },
        {
          "name": "_initialRate",
          "type": "uint256"
        },
        {
          "name": "_finalRate",
          "type": "uint256"
        }
      ],
      "payable": false,
      "stateMutability": "nonpayable",
      "type": "constructor"
    },
    {
      "payable": true,
      "stateMutability": "payable",
      "type": "fallback"
    },
    {
      "anonymous": false,
      "inputs": [
        {
          "indexed": false,
          "name": "prevClosingTime",
          "type": "uint256"
        },
        {
          "indexed": false,
          "name": "newClosingTime",
          "type": "uint256"
        }
      ],
      "name": "TimedCrowdsaleExtended",
      "type": "event"
    },
    {
      "anonymous": false,
      "inputs": [
        {
          "indexed": true,
          "name": "purchaser",
          "type": "address"
        },
        {
          "indexed": true,
          "name": "beneficiary",
          "type": "address"
        },
        {
          "indexed": false,
          "name": "value",
          "type": "uint256"
        },
        {
          "indexed": false,
          "name": "amount",
          "type": "uint256"
        }
      ],
      "name": "TokensPurchased",
      "type": "event"
    }
  ],
  "bytecode": "0x608060405234801561001057600080fd5b5060405160e080610a99833981018060405260e081101561003057600080fd5b8101908080519060200190929190805190602001909291908051906020019092919080519060200190929190805190602001909291908051906020019092919080519060200190929190505050818185858a8a8a600160008190555060008311151561009b57600080fd5b600073ffffffffffffffffffffffffffffffffffffffff168273ffffffffffffffffffffffffffffffffffffffff16141515156100d757600080fd5b600073ffffffffffffffffffffffffffffffffffffffff168173ffffffffffffffffffffffffffffffffffffffff161415151561011357600080fd5b8260038190555081600260006101000a81548173ffffffffffffffffffffffffffffffffffffffff021916908373ffffffffffffffffffffffffffffffffffffffff16021790555080600160006101000a81548173ffffffffffffffffffffffffffffffffffffffff021916908373ffffffffffffffffffffffffffffffffffffffff1602179055505050504282101515156101ae57600080fd5b81811115156101bc57600080fd5b816005819055508060068190555050506000811115156101db57600080fd5b80821115156101e957600080fd5b816007819055508060088190555050505050505050505061088a8061020f6000396000f3fe6080604052600436106100ba576000357c0100000000000000000000000000000000000000000000000000000000900463ffffffff1680631515bc2b146100c557806321106109146100f45780632c4e722e1461011f5780634042b66f1461014a57806347535d7b146101755780634b6753bc146101a4578063521eb273146101cf5780639e51051f14610226578063b7a8807c14610251578063ec8ac4d81461027c578063f7fb07b0146102c0578063fc0c546a146102eb575b6100c333610342565b005b3480156100d157600080fd5b506100da610438565b604051808215151515815260200191505060405180910390f35b34801561010057600080fd5b50610109610444565b6040518082815260200191505060405180910390f35b34801561012b57600080fd5b5061013461044e565b6040518082815260200191505060405180910390f35b34801561015657600080fd5b5061015f610455565b6040518082815260200191505060405180910390f35b34801561018157600080fd5b5061018a61045f565b604051808215151515815260200191505060405180910390f35b3480156101b057600080fd5b506101b961047a565b6040518082815260200191505060405180910390f35b3480156101db57600080fd5b506101e4610484565b604051808273ffffffffffffffffffffffffffffffffffffffff1673ffffffffffffffffffffffffffffffffffffffff16815260200191505060405180910390f35b34801561023257600080fd5b5061023b6104ae565b6040518082815260200191505060405180910390f35b34801561025d57600080fd5b506102666104b8565b6040518082815260200191505060405180910390f35b6102be6004803603602081101561029257600080fd5b81019080803573ffffffffffffffffffffffffffffffffffffffff169060200190929190505050610342565b005b3480156102cc57600080fd5b506102d56104c2565b6040518082815260200191505060405180910390f35b3480156102f757600080fd5b5061030061057b565b604051808273ffffffffffffffffffffffffffffffffffffffff1673ffffffffffffffffffffffffffffffffffffffff16815260200191505060405180910390f35b60016000808282540192505081905550600080549050600034905061036783826105a5565b6000610372826105c6565b9050610389826004546105ee90919063ffffffff16565b600481905550610399848261060f565b8373ffffffffffffffffffffffffffffffffffffffff163373ffffffffffffffffffffffffffffffffffffffff167f6faf93231a456e552dbc9961f58d9713ee4f2e69d15f1975b050ef0911053a7b8484604051808381526020018281526020019250505060405180910390a3610410848361061d565b610418610621565b610422848361068c565b50506000548114151561043457600080fd5b5050565b60006006544211905090565b6000600854905090565b6000806000fd5b6000600454905090565b6000600554421015801561047557506006544211155b905090565b6000600654905090565b6000600260009054906101000a900473ffffffffffffffffffffffffffffffffffffffff16905090565b6000600754905090565b6000600554905090565b60006104cc61045f565b15156104db5760009050610578565b60006104f76104e86104b8565b4261069090919063ffffffff16565b9050600061051c6105066104b8565b61050e61047a565b61069090919063ffffffff16565b9050600061053760085460075461069090919063ffffffff16565b90506105726105618361055384876106b290919063ffffffff16565b6106f090919063ffffffff16565b60075461069090919063ffffffff16565b93505050505b90565b6000600160009054906101000a900473ffffffffffffffffffffffffffffffffffffffff16905090565b6105ad61045f565b15156105b857600080fd5b6105c2828261071a565b5050565b6000806105d16104c2565b90506105e683826106b290919063ffffffff16565b915050919050565b600080828401905083811015151561060557600080fd5b8091505092915050565b610619828261076a565b5050565b5050565b600260009054906101000a900473ffffffffffffffffffffffffffffffffffffffff1673ffffffffffffffffffffffffffffffffffffffff166108fc349081150290604051600060405180830381858888f19350505050158015610689573d6000803e3d6000fd5b50565b5050565b60008282111515156106a157600080fd5b600082840390508091505092915050565b6000808314156106c557600090506106ea565b600082840290508284828115156106d857fe5b041415156106e557600080fd5b809150505b92915050565b6000808211151561070057600080fd5b6000828481151561070d57fe5b0490508091505092915050565b600073ffffffffffffffffffffffffffffffffffffffff168273ffffffffffffffffffffffffffffffffffffffff161415151561075657600080fd5b6000811415151561076657600080fd5b5050565b61077261057b565b73ffffffffffffffffffffffffffffffffffffffff166340c10f1983836040518363ffffffff167c0100000000000000000000000000000000000000000000000000000000028152600401808373ffffffffffffffffffffffffffffffffffffffff1673ffffffffffffffffffffffffffffffffffffffff16815260200182815260200192505050602060405180830381600087803b15801561081457600080fd5b505af1158015610828573d6000803e3d6000fd5b505050506040513d602081101561083e57600080fd5b8101908080519060200190929190505050151561085a57600080fd5b505056fea165627a7a723058200388cc2434bee372abbdcaebf616a9aec8e5fafcfc5c740155a49aa72907c0a30029",
  "source": "pragma solidity ^0.5.0;\n\nimport \"openzeppelin-solidity/contracts/token/ERC20/ERC20.sol\";\nimport \"openzeppelin-solidity/contracts/crowdsale/Crowdsale.sol\";\nimport \"openzeppelin-solidity/contracts/crowdsale/emission/MintedCrowdsale.sol\";\nimport \"openzeppelin-solidity/contracts/crowdsale/validation/TimedCrowdsale.sol\";\nimport \"openzeppelin-solidity/contracts/crowdsale/price/IncreasingPriceCrowdsale.sol\";\n\n/*contract Sale is Crowdsale, TimedCrowdsale {\n\n    constructor(\n        uint256 rate,         // rate, in TKNbits\n        address payable wallet,       // wallet to send Ether\n        ERC20 token,          // the token\n        uint256 openingTime,  // opening time in unix epoch seconds\n        uint256 closingTime   // closing time in unix epoch seconds\n    )\n        //PostDeliveryCrowdsale()\n        TimedCrowdsale(openingTime, closingTime)\n        Crowdsale(rate, wallet, token)\n        public\n    {\n        // nice! this Crowdsale will keep all of the tokens until the end of the crowdsale\n        // and then users can `withdrawTokens()` to get the tokens they're owed\n    }\n}*/\n\ncontract Sale is Crowdsale, TimedCrowdsale, IncreasingPriceCrowdsale, MintedCrowdsale {\n    constructor(\n        uint256 _rate,\n        address payable _wallet,\n        ERC20 _token,\n        uint256 _openingTime,\n        uint256 _closingTime,\n        uint256 _initialRate, \n        uint256 _finalRate\n    )\n        TimedCrowdsale(_openingTime, _closingTime)\n        IncreasingPriceCrowdsale(_initialRate, _finalRate)\n        MintedCrowdsale()\n        Crowdsale(_rate, _wallet, _token)\n        public\n    {\n\n    }\n}\n",
  "sourcePath": "/home/arct/projects/etherHedgeProject/contracts/Sale.sol",
  "compiler": {
    "name": "solc",
    "version": "0.5.0+commit.1d4f565a.Emscripten.clang"
  },
  "schemaVersion": "3.0.6",
  "updatedAt": "2019-05-26T02:06:39.932Z",
  "devdoc": {
    "methods": {
      "buyTokens(address)": {
        "details": "low level token purchase ***DO NOT OVERRIDE*** This function has a non-reentrancy guard, so it shouldn't be called by another `nonReentrant` function.",
        "params": {
          "beneficiary": "Recipient of the token purchase"
        }
      },
      "closingTime()": {
        "return": "the crowdsale closing time."
      },
      "finalRate()": {
        "return": "the final rate of the crowdsale."
      },
      "getCurrentRate()": {
        "details": "Returns the rate of tokens per wei at the present time. Note that, as price _increases_ with time, the rate _decreases_.",
        "return": "The number of tokens a buyer gets per wei at a given time"
      },
      "hasClosed()": {
        "details": "Checks whether the period in which the crowdsale is open has already elapsed.",
        "return": "Whether crowdsale period has elapsed"
      },
      "initialRate()": {
        "return": "the initial rate of the crowdsale."
      },
      "isOpen()": {
        "return": "true if the crowdsale is open, false otherwise."
      },
      "openingTime()": {
        "return": "the crowdsale opening time."
      },
      "token()": {
        "return": "the token being sold."
      },
      "wallet()": {
        "return": "the address where funds are collected."
      },
      "weiRaised()": {
        "return": "the amount of wei raised."
      }
    }
  },
  "userdoc": {
    "methods": {
      "rate()": {
        "notice": "The base rate function is overridden to revert, since this crowdsale doesn't use it, and all calls to it are a mistake."
      }
    }
  }
}